:100000000C9442010C94FD050C94D6050C946A01E5
:100010000C946A010C946A010C946A010C946A01B4
:100020000C946A010C946A010C946A010C946A01A4
:100030000C946A010C946A010C946A010C946A0194
:100040000C948C050C946A010C944A060C942406BA
:100050000C946A010C946A010C946A010C946A0174
:100060000C947C060C946A0108000000BE9224499E
:10007000123EABAAAA2ABECDCCCC4C3E00000080DA
:10008000BEABAAAAAA3E00000000BF000000803F4D
:100090000000000000084178D3BB4387D1133D190D
:1000A0000E3CC3BD4282AD2B3E68EC8276BED98F3A
:1000B000E1A93E4C80EFFFBE01C4FF7F3F0000007E
:1000C000000000407A10F35A00A0724E1809001088
:1000D000A5D4E80000E87648170000E40B540200BD
:1000E00000CA9A3B000000E1F505000080969800E8
:1000F000000040420F000000A08601000000102711
:1001000000000000E80300000000640000000000A0
:100110000A00000000000100000000002C76D888D2
:10012000DC674F0823DFC1DFAE59E1B1B796E5E3E5
:10013000E453C63AE651997696E8E6C28426EB89FE
:100140008C9B62ED407C6FFCEFBC9C9F40F2BAA59B
:100150006FA5F490055A2AF75C936B6CF9676DC133
:100160001BFCE0E40D47FEF520E6B500D0ED902E37
:100170000300943577050080841E080000204E0A95
:10018000000000C80C333333330F986E12831141D3
:10019000EF8D2114893BE65516CFFEE6DB18D1849E
:1001A0004B381BF77C1D901DA4BBE42420328472C5
:1001B0005E228100C9F124ECA1E53D27005EBCE28E
:1001C000613FDD83C29C7E20A3FD1F41009D23BEB5
:1001D00046DB65F88C11AF32CA57E9745B20696E53
:1001E0006974696174656420445331384232305D0A
:1001F000005B4D435520492F4F2070696E206D6F75
:1002000064657320696E697469617465645D004D2D
:100210006F746F7220432D426C6F636B2074656D39
:10022000702873293A200000000000240027002ACB
:100230000000000000250028002B0000000008003E
:10024000020100000304070000000000000000009D
:100250000000002300260029000404040404040410
:100260000402020202020203030303030301020465
:100270000810204080010204081020010204081028
:100280002000970711241FBECFEFD8E0DEBFCDBFFF
:1002900022E0AEE5B1E001C01D92A63BB207E1F756
:1002A00011E0A0E0B1E0E2E5F9E202C005900D92B4
:1002B000AE35B107D9F711E0C2E4D1E004C021970F
:1002C000FE010E94AA0EC134D107C9F70E940D0891
:1002D0000C94A7140C94000090E0FC01E55CFD4F29
:1002E0002491FC01E359FD4F3491FC01E75AFD4F85
:1002F000E491EE23C9F0222339F0233001F1A8F470
:10030000213019F1223029F1F0E0EE0FFF1FEF5CF0
:10031000FD4FA591B4918FB7F894EC91611126C06F
:1003200030953E233C938FBF08952730A9F02830A5
:10033000C9F0243049F7809180008F7D03C08091FF
:1003400080008F7780938000DFCF84B58F7784BD66
:10035000DBCF84B58F7DFBCF8091B0008F7780930A
:10036000B000D2CF8091B0008F7DF9CF3E2BDACF95
:10037000CF93DF9390E0FC01E359FD4F2491875A1E
:100380009D4FFC0184918823D1F090E0880F991F44
:10039000FC01E95DFD4FA591B491FC01EF5CFD4FBF
:1003A000C591D49161110EC09FB7F8948C91E22F42
:1003B000E0958E238C932881E223E8839FBFDF9111
:1003C000CF9108958FB7F894EC91E22BEC938FBF07
:1003D000F6CF8E50806480937C0080917A00806498
:1003E00080937A0080917A0086FDFCCF809178001E
:1003F0009091790008953FB7F8948091EC01909125
:10040000ED01A091EE01B091EF0126B5A89B05C0CA
:100410002F3F19F00196A11DB11D3FBFBA2FA92F83
:10042000982F8827BC01CD01620F711D811D911D80
:1004300042E0660F771F881F991F4A95D1F70895EC
:100440000895AF92BF92CF92DF92EF92FF920F93F7
:100450001F93CF93DF936C017B018B01040F151F5A
:10046000EB015E01AE18BF08C017D10759F06991C2
:10047000D601ED91FC910190F081E02DC601099526
:10048000892B79F7C501DF91CF911F910F91FF90D3
:10049000EF90DF90CF90BF90AF900895FC01538D07
:1004A000448D252F30E0842F90E0821B930B54174E
:1004B00010F0CF96089501970895FC01918D828DDB
:1004C000981761F0A28DAE0FBF2FB11D5D968C9174
:1004D000928D9F5F9F73928F90E008958FEF9FEFB3
:1004E0000895FC01918D828D981731F0828DE80F6F
:1004F000F11D858D90E008958FEF9FEF0895FC0129
:10050000918D228D892F90E0805C9F4F821B9109F5
:100510008F739927089580EF91E00E947F0221E078
:10052000892B09F420E0822F089580E090E0892B48
:1005300029F00E948B0281110C9400000895FC01A7
:10054000A48DA80FB92FB11DA35ABF4F2C91848D34
:1005500090E001968F739927848FA689B7892C9391
:10056000A089B1898C91837080648C93938D848DE4
:10057000981306C00288F389E02D80818F7D8083E7
:100580000895EF92FF920F931F93CF93DF93EC01A7
:1005900081E0888F9B8D8C8D98131AC0E889F9892A
:1005A000808185FF15C09FB7F894EE89FF8960832D
:1005B000E889F98980818370806480839FBF81E0AE
:1005C00090E0DF91CF911F910F91FF90EF900895F0
:1005D000F62E0B8D10E00F5F1F4F0F731127E02ECB
:1005E0008C8D8E110CC00FB607FCFACFE889F98903
:1005F000808185FFF5CFCE010E949F02F1CFEB8D68
:10060000EC0FFD2FF11DE35AFF4FF0829FB7F894D6
:100610000B8FEA89FB8980818062CFCFCF93DF93F4
:10062000EC01888D8823B9F0AA89BB89E889F9890A
:100630008C9185FD03C0808186FD0DC00FB607FC3F
:10064000F7CF8C9185FFF2CF808185FFEDCFCE0172
:100650000E949F02E9CFDF91CF910895DC0180E0F5
:10066000615090F09D919827E92FEF70F0E0E454ED
:10067000FE4F2491E92FE295EF70F0E0E453FE4F36
:10068000E491822F8E27ECCF0895DC012C911196F6
:10069000ED91FC91F8948181822B81839281322F9C
:1006A00030959323928387E090E00197F1F7818161
:1006B0008323818383E290E00197F1F7908178941E
:1006C000EFECF0E03197F1F7922381E009F480E05C
:1006D0000895FC0190810180F281E02D292F209561
:1006E00060FF14C0F8948281822382838181892BE8
:1006F0008183A3E2B0E01197F1F78281982B928376
:10070000789487ED90E00197F1F70895F89482814D
:10071000822382838181892B8183AFEFB0E011979F
:10072000F1F78281982B928378948FE090E0EBCF61
:10073000EF92FF920F931F93CF93DF93EC01E62E7E
:1007400008E010E0FF24F39461E08E2D8F2109F47E
:1007500060E0CE010E946903FF0C01501109A1F76E
:10076000F894E981FA819181888180958923818338
:10077000E981FA81928188818095892382837894A6
:10078000DF91CF911F910F91FF90EF900895EF921D
:10079000FF920F931F93CF93DF938C017B0165E54D
:1007A0000E949803E70188E0E80EF11C6991C801F6
:1007B0000E949803CE15DF05C9F7DF91CF911F91F5
:1007C0000F91FF90EF900895FC0190810180F281DC
:1007D000E02DF8948181292F2095822381837894BC
:1007E0003DE743E050E0315029F1DA011197F1F78C
:1007F00080818923C1F3F89482818223828381815D
:10080000892B81837894ABE7B7E01197F1F7F894DF
:10081000818182238183A3E1B1E01197F1F7808187
:10082000982381E009F080E07894E3E6F6E03197E0
:10083000F1F7089580E0089520918501260F332770
:10084000331F21323105ECF42091A901FC0190E025
:1008500080E0243069F082E00895A0918501219123
:10086000AC014B595E4FA40FB52FB11D2C930196CF
:10087000861798F380918501680F6093850180E069
:10088000089581E0089508958FEF9FEF08958FEF09
:100890009FEF089580915E0190E091958195910977
:1008A0000895CF93DF93CB01EA01642F0E941C04CB
:1008B000CE01DF91CF910895CF93DF931F92CDB7F3
:1008C000DEB7698361E0CE0101960E941C0481E0DD
:1008D00090E00F90DF91CF91089590E080E008952F
:1008E00042E050E06CE171E080EF91E00C94210275
:1008F0000F931F93CF93DF938C01D0E0C0E0F801FA
:10090000EC0FFD1F6491662341F080EF91E00E949F
:10091000C102892B11F02196F2CF0E9470048C0F36
:100920009D1FDF91CF911F910F910895CF93DF937A
:10093000EC0188819981009711F00E94B010198212
:1009400018821D821C821B821A82DF91CF9108952A
:100950000F931F93CF93DF93EC01888199810097C8
:1009600059F02A813B812617370730F081E0DF916B
:10097000CF911F910F9108958B016F5F7F4F0E9460
:100980003911009759F0998388831B830A832C813E
:100990003D81232B59F7FC011082E8CF80E0E7CF9F
:1009A0001F93CF93DF9385ED8093BC00809161010D
:1009B00090916201A0916301B09164010796A11D1D
:1009C000B11D23E0B695A795979587952A95D1F700
:1009D0002091BC0024FD03C01092A90152C0409197
:1009E0006101509162016091630170916401452B36
:1009F000462B472B69F30097A105B10541F025E38C
:100A00002A95F1F700000197A109B109E1CF809182
:100A10006001C1E0C0935F01882399F1D091B800D3
:100A20001091BA008091BC008A7B8093BC0060E08A
:100A300082E10E946C0160E083E10E946C011092EF
:100A4000A901C093AB011092AA0161E082E10E946A
:100A50006C0161E083E10E946C018091B9008E7F9E
:100A60008093B9008091B9008D7F8093B90088E4AC
:100A70008093B80085E48093BC001093BA00D093B3
:100A8000B800DF91CF911F910895CF92DF92EF923E
:100A9000FF922AE038E240EA5BE30E94B50D6B0169
:100AA0007C01AC019B0160E070E080EA90E40E9470
:100AB000B00E20E030E44CE156E40E941D0F9B0193
:100AC000AC01C701B6010E941D0F20E030E44CE1EB
:100AD00056E40E941D0F0E94970F20E030E948E77E
:100AE00055E40E941D0F2FE03FEC4BE55BE30E94B5
:100AF000B10E9B01AC0160E070E080E89FE30E94D2
:100B00001D0F23E333E948E853E40E94B00EFF9041
:100B1000EF90DF90CF9008951F920F920FB60F9233
:100B200011242F933F938F939F93AF93BF93809103
:100B3000E8019091E901A091EA01B091EB013091B7
:100B4000E70123E0230F2D3758F50196A11DB11DB4
:100B50002093E7018093E8019093E901A093EA01D3
:100B6000B093EB018091EC019091ED01A091EE0129
:100B7000B091EF010196A11DB11D8093EC019093FE
:100B8000ED01A093EE01B093EF01BF91AF919F9162
:100B90008F913F912F910F900FBE0F901F9018953E
:100BA00026E8230F0296A11DB11DD2CF1F920F92EE
:100BB0000FB60F9211242F933F934F935F936F9330
:100BC0007F938F939F93AF93BF93EF93FF93E091A6
:100BD0000201F09103010995FF91EF91BF91AF914F
:100BE0009F918F917F916F915F914F913F912F9145
:100BF0000F900FBE0F901F9018951F920F920FB677
:100C00000F9211242F933F934F935F936F937F9392
:100C10008F939F93AF93BF93EF93FF93E091000166
:100C2000F09101010995FF91EF91BF91AF919F91D3
:100C30008F917F916F915F914F913F912F910F9085
:100C40000FBE0F901F9018951F920F920FB60F9224
:100C500011242F933F934F935F936F937F938F93C1
:100C60009F93AF93BF93EF93FF9380EF91E00E9428
:100C70009F02FF91EF91BF91AF919F918F917F91D3
:100C80006F915F914F913F912F910F900FBE0F90F9
:100C90001F9018951F920F920FB60F9211242F9349
:100CA0008F939F93EF93FF93E0910002F0910102E5
:100CB0008081E0910602F091070282FD1BC09081C5
:100CC000809109028F5F8F7320910A02821741F091
:100CD000E0910902F0E0E051FE4F958F8093090208
:100CE000FF91EF919F918F912F910F900FBE0F90D9
:100CF0001F9018958081F4CF1F920F920FB60F921C
:100D000011242F933F934F935F936F937F938F9310
:100D10009F93AF93BF93EF93FF938091B900887F28
:100D2000803609F44AC0F0F5883209F4A5C018F5F8
:100D3000803109F499C0B8F4882309F4F5C08830EB
:100D400009F492C0FF91EF91BF91AF919F918F9164
:100D50007F916F915F914F913F912F910F900FBEB7
:100D60000F901F901895883109F486C0803251F792
:100D70008093A80114C0803409F49BC040F48033F0
:100D8000B9F38833F9F68093A80185ECAEC08035BD
:100D900009F483C0883509F494C0883499F60E9418
:100DA000D004D0CF883909F48AC038F5883729F0C3
:100DB00050F4883611F0803729F683E08093A9013A
:100DC0001092A70155C0883809F479C0803919F00C
:100DD000803809F0B7CF8091A701803208F06FC04A
:100DE000E091A70181E08E0F8093A7018091BB0065
:100DF000F0E0E957FE4F80833BC0803B39F0D0F4F0
:100E0000803A09F477C0883A09F09CCF84E0809357
:100E1000A9011092860110928501F0E0E0E00995A9
:100E20008091850181110FC081E08093850110922E
:100E3000650109C0803C09F4A8CF883C09F4A5CF1E
:100E4000883B09F07FCFE091860181E08E0F80938F
:100E50008601F0E0EB59FE4F80818093BB009091BA
:100E600086018091850129C08091CE018093BB00CD
:100E700085EC8093BC0066CF9091CD018091CC0130
:100E8000981758F5E091CD0181E08E0F8093CD0148
:100E9000F0E0E455FE4F8081E9CFE091CD0181E0A3
:100EA0008E0F8093CD018091BB00F0E0E455FE4FA2
:100EB00080839091CD018091CC019817C8F285E88C
:100EC000D8CFE091CD0181E08E0F8093CD0180914C
:100ED000BB00F0E0E455FE4F80838091AB018111AF
:100EE0005ECF81E08093AA0184EA8093BC001092D7
:100EF000A90128CF85EC8093BC001092A9018091B4
:100F0000A701803230F4E091A701F0E0E957FE4FED
:100F100010826091A70170E087E891E0F0E0E0E0E6
:100F200009951092A7010ECF1092A80138CFE0EFDB
:100F3000F1E01382128288EE93E0A0E0B0E08483B7
:100F40009583A683B7838EE091E09183808385ECBF
:100F500090E09587848784EC90E09787868780EC83
:100F600090E0918B808B81EC90E0938B828B82EC74
:100F700090E0958B848B86EC90E0978B868B118E1E
:100F8000128E138E148E60E082E00E94B801EFE6AC
:100F9000F2E0E491A4EAB2E0EC93EBE5F2E0E49154
:100FA000F0E0EE0FFF1FE15BFD4F859194911296EB
:100FB0009C938E9311971B961C921B971D961C92C7
:100FC0001D971C961C921C971A961C921A9719969C
:100FD0001C92199718961C92189717961C9217979F
:100FE00016961C92169715961C92159714961C929D
:100FF000149713961C921397EDE8F2E0168A158A5F
:101000001182B287A18717821086108289E08383BC
:1010100081E08483858386830895CF93DF93CDB762
:10102000DEB7A9970FB6F894DEBF0FBECDBF789498
:1010300084B5826084BD84B5816084BD85B58260DD
:1010400085BD85B5816085BD80916E00816080938E
:101050006E001092810080918100826080938100F7
:101060008091810081608093810080918000816007
:10107000809380008091B10084608093B100809162
:10108000B00081608093B00080917A00846080938A
:101090007A0080917A00826080937A0080917A0051
:1010A000816080937A0080917A00806880937A00D2
:1010B0001092C100E0910002F091010282E0808371
:1010C000E091FC01F091FD011082E091FE01F091B0
:1010D000FF018FEC808310920802E0910402F091EE
:1010E000050286E08083E0910202F0910302808194
:1010F00080618083E0910202F09103028081886028
:101100008083E0910202F0910302808180688083F5
:10111000E0910202F091030280818F7D80830E9422
:10112000FB014B015C0148EEC42E43E0D42EE12CC0
:10113000F12C0E94FB01681979098A099B09683E14
:10114000734081059105A8F321E0C21AD108E10896
:10115000F10888EE880E83E0981EA11CB11CC11412
:10116000D104E104F10429F761E083E00E94B801B1
:1011700060E08EE00E94B80160E08FE00E94B8015C
:1011800060E080E10E94B80181EF91E00E94780464
:10119000E0919602F09197021386158614861286C6
:1011A000118610861782168215821482138210927D
:1011B00094021092950277247394662463946E01CE
:1011C000BAE0CB0ED11C0091960210919702F80163
:1011D0008585882309F4E9C0D8011B961C921B97CA
:1011E0001D961C921D971C961C928CED91E00E94FE
:1011F00078048FE1C82E81E0D82E9FECE92E91E093
:10120000F92E20E0A22E20E0B22E8EE00E94E9010D
:10121000BC01990F880B990B0E947A0D0E9445051D
:10122000162F072F982E892E862F902FA92DB82D97
:101230008093E3019093E401A093E501B093E6016C
:101240008FE00E94E901BC01990F880B990B0E9465
:101250007A0D0E9445059F938F937F936F938F9292
:101260009F920F931F93DF92CF92FF92EF920E9473
:101270000612D7010D900020E9F7AD01405D514005
:101280006FEC71E080EF91E00E9421020E947004F7
:1012900080E10E94E901BC01990F880B990B0E9423
:1012A0007A0D0E9445051BA21AA21DA21CA21FA214
:1012B0001EA28E010F5F1F4F22E044E00E94230B0D
:1012C0008C010FB6F894DEBF0FBECDBF009779F04A
:1012D000FC0101900020E9F731974F01881A990A23
:1012E000B401CE0182960E94A80481117FC1CE0173
:1012F00082960E9496041A8219821C821B821E8288
:101300001D8265E170E0CE0101960E94A804811162
:1013100075C1CE0101960E9496048AA09BA08114FB
:10132000910409F476C10EA11FA101151105B9F0B0
:101330008D819E81080F191FB801CE0101960E9470
:10134000A804882309F465C129813A818D819E8191
:10135000B401820F931F0E94FF111E830D834D81E4
:101360005E8169817A8180EF91E00E9421020E9472
:10137000700489819A81009711F00E94B0108AA1AF
:101380009BA1009711F00E94B0108FE092E00E94A4
:101390007804A114B10409F438CF0E948B02882389
:1013A00009F433CF0E94000030CFC8010E94E4034B
:1013B000811105C0F80113861586148616CF60EFDB
:1013C000C8010E949803EE24E394A12C912CFF24E1
:1013D000F394C8010E944503B82EC8010E9445033A
:1013E000F1E0BF1272C0813009F091C0E0E4EF1566
:1013F00008F0F2CED8011B969C921B97911002C068
:101400001D967C92F8018381882309F4E5CED801EA
:101410001396FE01B296055F1F4F7F018D91819358
:101420000A171B07D9F767E0C7010E942E0399A589
:101430008913C9CE809194028F5F809394028AA110
:10144000883239F008F07AC0803119F0823209F020
:10145000BACE809195028F5F80939502809196021B
:101460009091970220918D02211121C00E94E403E6
:10147000B70180919602909197020E94C70364EB96
:1014800080919602909197020E9498038091960213
:10149000909197020E944503182F80919602909197
:1014A00097020E94E403111102C060928D028091A4
:1014B0009602909197022AA1203109F48AC00E94D5
:1014C000E403811142C080E087C0EA2DF0E0B81249
:1014D00014C0D8011B968C911B97F816B0F4AE0F70
:1014E000BF1F13968C918E2191F4B12CB8E0BF15DB
:1014F00018F0D8011C96FC929F2CE00FF11F8381FD
:101500009E2D9095892383830AC08F11EECFF80119
:10151000EA0DF11D83818E298383BB24B3946B2D47
:10152000C8010E946903F394EE0C19F4A394EE240D
:10153000E394B7E0BA1508F04CCF58CF8B3309F4D9
:1015400088CF823409F03FCE84CFB70180919602D4
:10155000909197020E94C7036EEB80919602909142
:1015600097020E9498038E010F5F1F4F78011801A8
:10157000809096029090970238E0A32EB12C512CC7
:1015800044244394C4010E94450381115428440C0F
:10159000F1E0AF1AB108B1F7D7015D927D01CA162B
:1015A000DB0631F780919602909197020E94E40346
:1015B000813009F088CFF80181918F0181112EC00F
:1015C000EE15FF05C1F77FCF8F3571F08F3709F02A
:1015D0007ACF8CE001C08AE090919002981708F0D1
:1015E000F2CD80939002EFCD8BE0F6CF9FA28EA23A
:1015F000B8018AA19BA10E94FF117DCE85E190E0F8
:101600009E838D8368E471E089819A810E94FF1135
:1016100084CECE0101960E949604A1CE68E0C1015D
:101620000E942E03998589134ECF8D819AA19B33F9
:1016300011F487FDCECF8F3371F230F68F3109F080
:1016400042CF89E0C9CFEF920F931F93CF93DF93DF
:10165000E80134E047FD34E1042E000C550B57FF40
:1016600003C0519541955109E32E022F242FAE015D
:101670000E94410BCE01DF91CF911F910F91EF900E
:101680000895A9E0B0E0E7E4FBE00C94790E6A016C
:10169000F22EB02E102FFBE3AF2EA01608F41BE3A2
:1016A0001F5F012F27E0AE014F5F5F4F0E94A00C2C
:1016B000BC018981982F9970913009F43FC09BE259
:1016C000E1FC04C09E2D9170E0FC3AC05E2D50718B
:1016D000E82FE87083FF46C084E0911101C083E0E9
:1016E000EF2DE81B8F1508F0E0E0D6018E2F20E2E9
:1016F000552351F1992329F0D6019C93C6010196F7
:101700006C0196012D5F3F4FE2FE24C08EE4D601AE
:101710008C9391E411969C93119712968C93D90116
:101720008E2F90E281111BC0E20FF32FF11D10826A
:101730008EEF9FEF2996ECE00C94950E9DE2C6CFBC
:1017400090E2C4CF2D9381508111FCCFCE0ED11CDD
:10175000E0E0D0CF8EE6D6018C9391E6DBCF9D936F
:101760008150E0CF482F447082FF3DC084E091114A
:1017700001C083E08F1510F4EF2DE81BD6018E2FEA
:1017800020E2552309F1992329F0D6019C93C60143
:1017900001966C0196012D5F3F4FE2FE1BC089E46C
:1017A000D6018C938EE411968C93119786E4129651
:1017B0008C93D9018E2F90E2882309F4B5CF9D93A5
:1017C0008150FACF2D9381508111FCCFCE0ED11CC8
:1017D000E0E0D9CF89E6D6018C938EE611968C9302
:1017E000119786E6E4CF9B0177FF02C030E020E04E
:1017F000A1E0B0E0911102C0B0E0A0E0F9013196A3
:10180000AE0FBF1F8B2C912CBB2009F461C054017B
:10181000EFEFAE1ABE0AAA0DBB1DFA161B0619F091
:1018200014F04F2D4A1B511188C0E3FC59C07601BA
:10183000A42FB0E2A1114FC0C40ED11C992309F40A
:101840005BC040E0D6011196F60190836D015523EF
:1018500009F448C0012F060F9A81582F507184FF58
:1018600003C0913309F4015010160CF047C0093041
:1018700008F008E0EEE2FE2E5B01A01AB108850137
:101880009194819491082F3F320729F4D601FC925C
:10189000F60131966F016217730794F1021713076F
:1018A0007CF5DB01A21BB30BAA24A394B12CAC0ED4
:1018B000BD1EAA0DBB1D11968C9121503109D60178
:1018C000119628153905F4F0F60180836D01DBCF00
:1018D000B12CA12CA0CFF701B1937F01A150AACFC9
:1018E0009111B0CFD601942F50E302C05D93915077
:1018F0009111FCCFC40ED11C40E0ACCF01E0BACFB7
:1019000080E3DBCF6217730731F4963388F49533A5
:1019100011F4552369F0F6018083FD01842F90E2D4
:10192000811108C0A40FB11D1C9290E080E002CF8D
:1019300081E3F1CF91938150F3CF911183CF8ACF7F
:10194000283008F027E03327DA01990F311D87FD91
:10195000916000966105710539F432602E5F3D9308
:1019600030E32A95E1F708959F3F30F08038710504
:10197000610509F03C5F3C5F3D93913008F0806861
:10198000911DDF93CF931F930F93FF92EF92192F27
:10199000987F9695E92F96959695E90FFF27E45E37
:1019A000FE4F99273327EE24FF24A701E701059076
:1019B0000894079428F4360FE71EF81E491F511D9E
:1019C000660F771F881F991F0694A1F7059007944B
:1019D00028F4E70EF81E491F561FC11D770F881FF8
:1019E000991F661F0694A1F70590079428F4F80E36
:1019F000491F561FC71FD11D880F991F661F771FCC
:101A00000694A1F70590079420F4490F561FC71FAD
:101A1000D81F990F661F771F881F0694A9F7849116
:101A20001095177041F0D695C79557954795F7943F
:101A3000E7941A95C1F7E2ECF0E0689415901591DF
:101A400035916591959105907FE27395E118F10AC2
:101A5000430B560BC90BD009C0F7E10CF11E431F15
:101A6000561FC91FD01D7EF4703311F48A95E6CF3E
:101A7000E894015030F0080F0AF40027021708F428
:101A8000202F2395022F7A3328F079E37D932A952E
:101A9000E9F710C07D932A9589F606949795679586
:101AA000379517951794E118F10A430B560BC90B9C
:101AB000D00998F023957E9173957A3308F070E3FE
:101AC0007C932013B8F77E9170617D9330F08395FD
:101AD00071E37D9370E32A95E1F71124EF90FF9075
:101AE0000F911F91CF91DF91992787FD90950895D0
:101AF000E89409C097FB3EF49095809570956195A8
:101B00007F4F8F4F9F4F9923A9F0F92F96E9BB275D
:101B10009395F695879577956795B795F111F8CFD9
:101B2000FAF4BB0F11F460FF1BC06F5F7F4F8F4F44
:101B30009F4F16C0882311F096E911C0772321F03A
:101B40009EE8872F762F05C0662371F096E8862FD2
:101B500070E060E02AF09A95660F771F881FDAF729
:101B6000880F9695879597F908950E94C80D0C9453
:101B7000390E0E942B0E38F00E94320E20F0952371
:101B800011F00C94220E0C94280E11240C946D0E5E
:101B90000E944A0E70F3959FC1F3950F50E0551FB8
:101BA000629FF001729FBB27F00DB11D639FAA27B2
:101BB000F00DB11DAA1F649F6627B00DA11D661F01
:101BC000829F2227B00DA11D621F739FB00DA11D22
:101BD000621F839FA00D611D221F749F3327A00DDC
:101BE000611D231F849F600D211D822F762F6A2F78
:101BF00011249F5750409AF0F1F088234AF0EE0FDD
:101C0000FF1FBB1F661F771F881F91505040A9F709
:101C10009E3F510580F00C94220E0C946D0E5F3F98
:101C2000E4F3983ED4F3869577956795B795F79545
:101C3000E7959F5FC1F7FE2B880F911D96958795BD
:101C400097F9089597F99F6780E870E060E008953C
:101C50009FEF80EC089500240A94161617061806C4
:101C60000906089500240A941216130614060506A0
:101C70000895092E0394000C11F4882352F0BB0F31
:101C800040F4BF2B11F460FF04C06F5F7F4F8F4F94
:101C90009F4F089557FD9058440F551F59F05F3FCF
:101CA00071F04795880F97FB991F61F09F3F79F07E
:101CB00087950895121613061406551FF2CF469500
:101CC000F1DF08C0161617061806991FF1CF869582
:101CD0007105610508940895E894BB276627772766
:101CE000CB0197F908952F923F924F925F926F9296
:101CF0007F928F929F92AF92BF92CF92DF92EF929C
:101D0000FF920F931F93CF93DF93CDB7DEB7CA1B1C
:101D1000DB0B0FB6F894DEBF0FBECDBF09942A8847
:101D2000398848885F846E847D848C849B84AA84EF
:101D3000B984C884DF80EE80FD800C811B81AA817C
:101D4000B981CE0FD11D0FB6F894DEBF0FBECDBF47
:101D5000ED010895EE0FFF1F0590F491E02D099419
:101D60005058BB27AA270E94C80E0C94390E0E9417
:101D70002B0E38F00E94320E20F039F49F3F19F4F8
:101D800026F40C94280E0EF4E095E7FB0C94220E3A
:101D9000E92F0E944A0E58F3BA17620773078407A7
:101DA000950720F079F4A6F50C946C0E0EF4E095EE
:101DB0000B2EBA2FA02D0B01B90190010C01CA0105
:101DC000A0011124FF27591B99F0593F50F4503EB0
:101DD00068F11A16F040A22F232F342F4427585FA2
:101DE000F3CF469537952795A795F0405395C9F7BA
:101DF0007EF41F16BA0B620B730B840BBAF0915072
:101E0000A1F0FF0FBB1F661F771F881FC2F70EC010
:101E1000BA0F621F731F841F48F4879577956795E3
:101E2000B795F7959E3F08F0B0CF9395880F08F0CF
:101E30009927EE0F9795879508950E94310F0C947E
:101E4000390E0E94320E58F00E942B0E40F029F4F9
:101E50005F3F29F00C94220E51110C946D0E0C94DE
:101E6000280E0E944A0E68F39923B1F3552391F38B
:101E7000951B550BBB27AA2762177307840738F0F9
:101E80009F5F5F4F220F331F441FAA1FA9F335D056
:101E90000E2E3AF0E0E832D091505040E695001C0A
:101EA000CAF72BD0FE2F29D0660F771F881FBB1FC4
:101EB000261737074807AB07B0E809F0BB0B802DA2
:101EC000BF01FF2793585F4F3AF09E3F510578F0CE
:101ED0000C94220E0C946D0E5F3FE4F3983ED4F305
:101EE000869577956795B795F7959F5FC9F7880FA2
:101EF000911D9695879597F90895E1E0660F771FF4
:101F0000881FBB1F621773078407BA0720F0621B84
:101F1000730B840BBA0BEE1F88F7E095089516F04B
:101F20000C94DF0F0C94280E68940C94220E0E94DF
:101F3000520EA8F39923C1F3AEF3DF93CF931F930F
:101F40000F93FF92C92FDD2788232AF02197660F70
:101F5000771F881FDAF720E030E040E85FEB9FE36F
:101F6000883920F0803E38F021968F770E94B10E9C
:101F7000E8E6F0E004C00E94B10EE5E9F0E00E945E
:101F8000ED0F8B01BE01EC01FB2E6F5771097595AA
:101F9000771F880B990B0E947A0D28E132E741E305
:101FA0005FE30E94C80DAF2D9801AE01FF900F9125
:101FB0001F91CF91DF910E94C80E0C94390E9F3F64
:101FC00031F0915020F4879577956795B795880FF4
:101FD000911D9695879597F90895DF93CF931F9359
:101FE0000F93FF92EF92DF927B018C01689406C001
:101FF000DA2EEF010E94C80DFE01E894A59125910B
:10200000359145915591A6F3EF010E94C80EFE014E
:102010009701A801DA9469F7DF90EF90FF900F9194
:102020001F91CF91DF9108950F931F93CF93DF936B
:102030008230910510F482E090E0E091B402F091DA
:10204000B50230E020E0B0E0A0E0309799F421152F
:10205000310509F44AC0281B390B24303105D8F565
:102060008A819B816115710589F1FB0193838283CC
:10207000FE0111C040815181028113814817590727
:10208000E0F04817590799F4109761F012960C93F5
:10209000129713961C933296CF01DF91CF911F9127
:1020A0000F9108950093B4021093B502F4CF211557
:1020B000310551F04217530738F0A901DB019A01AD
:1020C000BD01DF01F801C1CFEF01F9CF9093B50257
:1020D0008093B402CDCFFE01E20FF31F8193919361
:1020E0002250310939832883D7CF2091B202309111
:1020F000B302232B41F42091060130910701309364
:10210000B3022093B2022091040130910501211500
:10211000310541F42DB73EB74091080150910901B6
:10212000241B350BE091B202F091B302E217F307E2
:10213000A0F42E1B3F0B2817390778F0AC014E5F37
:102140005F4F2417350748F04E0F5F1F5093B302BF
:102150004093B202819391939FCFF0E0E0E09CCF57
:10216000CF93DF930097E9F0FC013297138212823C
:10217000A091B402B091B502ED0130E020E01097DB
:10218000A1F420813181820F931F2091B2023091FE
:10219000B3022817390709F061C0F093B302E09346
:1021A000B202DF91CF910895EA01CE17DF07E8F57B
:1021B0004A815B819E0141155105B1F7E901FB831D
:1021C000EA8349915991C40FD51FEC17FD0761F4BB
:1021D000808191810296840F951FE90199838883FC
:1021E000828193819B838A83F0E0E0E012968D9157
:1021F0009C9113970097B9F52D913C911197CD01C2
:102200000296820F931F2091B2023091B3022817D9
:10221000390739F6309751F51092B5021092B40291
:10222000B093B302A093B202BCCFD383C2834081E8
:102230005181840F951FC817D90761F44E5F5F4F16
:1022400088819981480F591F518340838A819B81DE
:10225000938382832115310509F0B0CFF093B50245
:10226000E093B4029ECFFD01DC01C0CF1382128245
:10227000D7CFB0E0A0E0EFE3F1E10C94750E8C0154
:10228000009751F4CB010E9414108C01C801CDB706
:10229000DEB7E0E10C94910EFC01E60FF71F9C0104
:1022A00022503109E217F30708F49DC0D901CD91FE
:1022B000DC911197C617D70798F0C530D10530F3D8
:1022C000CE0104978617970708F3C61BD70B2297F2
:1022D000C193D1936D937C93CF010E94B010D6CF60
:1022E0005B01AC1ABD0A4C018C0E9D1EA091B4027C
:1022F000B091B502512C412CF12CE12C109731F505
:102300008091B2029091B3028815990509F05CC0E2
:102310004616570608F058C08091040190910501B7
:10232000009741F48DB79EB7409108015091090183
:10233000841B950BE817F90708F055C0F093B3021A
:10234000E093B202F90171836083A0CF8D919C91DB
:10235000119712966C90129713967C901397A8156C
:10236000B90559F56C0142E0C40ED11CCA14DB0456
:1023700020F1AC014A195B09DA011296159780F039
:102380006282738251834083D9016D937C93E114FF
:10239000F10471F0D7011396FC93EE93129776CF68
:1023A00022968C0F9D1FF90191838083F301EFCF5B
:1023B000F093B502E093B40269CF4816590608F4C9
:1023C0002C017D01D3019ACFCB010E9414107C0116
:1023D000009749F0AE01B8010E94F611C8010E94B1
:1023E000B010870153CF10E000E050CFFB01DC01BB
:1023F00002C001900D9241505040D8F70895FB0162
:10240000DC0101900D920020E1F70895AEE0B0E00C
:10241000ECE0F2E10C94810E0D891E8986E08C833C
:102420001A8309838FEF9FE79E838D83AE01475EFA
:102430005F4F6F89788DCE0101960E9429122F81FE
:102440003885020F131FF80110822E96E4E00C94D9
:102450009D0EABE0B0E0EFE2F2E10C94730E7C0174
:102460003B018A01FC0117821682838181FFC8C16A
:10247000CE0101965C01F7019381F30193FD8591F3
:1024800093FF81913F01882309F453C1853239F4C8
:1024900093FD859193FF81913F01853229F4B70126
:1024A00090E00E941914E7CF912C212C312CFFE1F0
:1024B000F31538F08B3211F190F4803209F1833248
:1024C00029F137FC3CC020ED280F2A3050F536FEAC
:1024D00020C08AE0989E200D1124922E06C08D32D5
:1024E00091F0803371F7689430F8F30193FD859192
:1024F00093FF81913F018111DACF21C0689431F8B7
:10250000689432F8F2CF689433F8EFCF689434F8D7
:10251000ECCFEAE02E9E200D1124222E689435F88F
:10252000E4CF8E3229F436FC04C1689436F8DDCF4E
:102530008C3619F4689437F8D8CF8836B1F2982FD2
:102540009F7D95549330E0F08336A1F18337C1F13C
:10255000833509F063C02801F2E04F0E511CF801E9
:10256000C080D180692D70E036FC02C06FEF7FEF34
:10257000C6010E9403144C01689437F882010AC016
:102580000C5F1F4FFFE3F98388248394912C65012E
:10259000E89437F833FE2DC0522C8114910471F564
:1025A000552009F468CFB70180E290E00E94191429
:1025B0005A94F6CFF801808189830E5F1F4FE4CFD4
:1025C0002801F2E04F0E511CF801C080D180692D26
:1025D00070E036FC02C06FEF7FEFC6010E940E1460
:1025E0004C018201D5CFB70180E290E00E9419141E
:1025F0002A942814190409F0B0F7CECFF60137FC5D
:10260000859137FE81916F01B70190E00E94191406
:1026100051105A94F1E08F1A9108BFCF843619F007
:10262000893609F077C0F80137FE6BC0608171818F
:10263000828193810C5F1F4FF32DFF763F2E97FF12
:1026400009C090958095709561957F4F8F4F9F4FF2
:10265000689437F82AE030E0A5010E944914C82E9A
:10266000CA188C2C432C36FE0CC0E89440F8C914D0
:1026700040F434FE05C032FC03C0F32DFE7E4F2E25
:10268000892C44FE95C0FE01EC0DF11D8081803344
:1026900009F087C0242D297E422E842D8870582E63
:1026A00043FC95C040FE8FC09C2C821418F42C0C67
:1026B000922C981844FE91C0B70180E390E00E94EC
:1026C000191442FE09C088E790E041FE02C088E587
:1026D00090E0B7010E941914C91408F48AC0CA9482
:1026E000D12C9FEFC91AD90ACA0CDB1CF6018291C2
:1026F0006F01B70190E00E941914AC14BD04B1F74A
:102700004FCF60817181072E000C880B990B0E5FF3
:102710001F4F92CFD32CE894D4F82AE030E08537CD
:1027200039F1232D297FD22E8F3601F148F48835D7
:10273000A9F0F701868197812B96E2E10C948F0E28
:10274000803749F08837A9F7D4FE02C06894D2F8E0
:1027500020E130E00DC06894D4F8F6CF34FE03C019
:10276000822F8660D82E20E132E002C028E030E0DF
:10277000F801D7FE0FC060817181828193810C5F67
:102780001F4FA5010E944914C82ECA183D2CE89479
:1027900037F867CF6081718190E080E00E5F1F4F56
:1027A000F0CF42FC02C0839478CF8394839475CF9A
:1027B000842D867809F471CFF6CFB70180E290E0DE
:1027C0000E94191483948214C0F3512C73CF522C9D
:1027D0005818821408F46ECFF8CF842D867809F447
:1027E0007BCF8BE241FE80E247FC8DE2B70190E0B7
:1027F00071CFB70180E390E00E9419149A946CCFD6
:102800008FEF9FEF99CFFC01059061507040011050
:10281000D8F7809590958E0F9F1F0895FC01615009
:10282000704001900110D8F7809590958E0F9F1FF2
:1028300008950F931F93CF93DF93182F092FEB0168
:102840008B8181FD09C01FEF0FEF812F902FDF914A
:10285000CF911F910F91089582FF14C02E813F8167
:102860008C819D81281739073CF4E881F981CF01DB
:1028700001969983888310838E819F8101969F831F
:102880008E83E3CFE885F985812F0995892BA1F304
:10289000DACFFA01AA27283051F1203181F1E894EA
:1028A0006F936E7F6E5F7F4F8F4F9F4FAF4FB1E043
:1028B0003ED0B4E03CD0670F781F891F9A1FA11D3E
:1028C000680F791F8A1F911DA11D6A0F711D811D3F
:1028D000911DA11D20D009F468943F912AE0269F04
:1028E00011243019305D3193DEF6CF010895462F63
:1028F0004770405D4193B3E00FD0C9F7F6CF462F44
:102900004F70405D4A3318F0495D31FD40524193AC
:1029100002D0A9F7EACFB4E0A69597958795779569
:102920006795BA95C9F700976105710508959B01F0
:10293000AC010A2E06945795479537952795BA9579
:10294000C9F7620F731F841F951FA01D0895F89487
:02295000FFCFB7
:10295200200220020000B602800000000000C10236
:1029620021024E020E037F025D0271020D0A005027
:10297200656C746965722074656D703A20686F7455
:10298200736964653A202566207C20636F6F6C73DF
:102992006964653A202566004E6F726D616C206332
:0E29A2006F6F6C616E742074656D703A20006A
:00000001FF
