:100000000C9441010C94CA060C94A3060C9469014B
:100010000C9469010C9469010C9469010C946901B8
:100020000C9469010C9469010C9469010C946901A8
:100030000C9469010C9469010C9469010C94690198
:100040000C9459060C9469010C9417070C94F10652
:100050000C9469010C9469010C9469010C94690178
:100060000C9449070C94690108000000BE922449D1
:10007000123EABAAAA2ABECDCCCC4C3E00000080DA
:10008000BEABAAAAAA3E00000000BF000000803F4D
:100090000000000000084178D3BB4387D1133D190D
:1000A0000E3CC3BD4282AD2B3E68EC8276BED98F3A
:1000B000E1A93E4C80EFFFBE01C4FF7F3F0000007E
:1000C000000000407A10F35A00A0724E1809001088
:1000D000A5D4E80000E87648170000E40B540200BD
:1000E00000CA9A3B000000E1F505000080969800E8
:1000F000000040420F000000A08601000000102711
:1001000000000000E80300000000640000000000A0
:100110000A00000000000100000000002C76D888D2
:10012000DC674F0823DFC1DFAE59E1B1B796E5E3E5
:10013000E453C63AE651997696E8E6C28426EB89FE
:100140008C9B62ED407C6FFCEFBC9C9F40F2BAA59B
:100150006FA5F490055A2AF75C936B6CF9676DC133
:100160001BFCE0E40D47FEF520E6B500D0ED902E37
:100170000300943577050080841E080000204E0A95
:10018000000000C80C333333330F986E12831141D3
:10019000EF8D2114893BE65516CFFEE6DB18D1849E
:1001A0004B381BF77C1D901DA4BBE42420328472C5
:1001B0005E228100C9F124ECA1E53D27005EBCE28E
:1001C000613FDD83C29C7E20A3FD1F41009D23BEB5
:1001D00046DB65F88C11AF32CA57E9745B696E690A
:1001E00074696174656420445331384232305D0073
:1001F0005B4D435520492F4F2070696E206D6F6411
:10020000657320696E697469617465645D004D6F22
:10021000746F7220432D426C6F636B2074656D7038
:100220002873293A200000000000240027002A003B
:1002300000000000250028002B000000000800023C
:10024000010000030407000000000000000000009F
:10025000000023002600290004040404040404040C
:100260000202020202020303030303030102040861
:100270001020408001020408102001020408102010
:10028000640811241FBECFEFD8E0DEBFCDBF23E04E
:10029000A2ECB1E001C01D92AE31B207E1F711E06E
:1002A000A0E0B1E0EEE1FCE202C005900D92A23CBC
:1002B000B107D9F711E0C1E4D1E004C02197FE01F4
:1002C0000E94DA0FC034D107C9F70E94DA080C94F3
:1002D0000D160C940000833081F028F4813099F0E1
:1002E0008230A9F008958730A9F08830C9F08430B1
:1002F000B1F4809180008F7D03C0809180008F7762
:1003000080938000089584B58F7784BD089584B567
:100310008F7DFBCF8091B0008F778093B0000895E0
:100320008091B0008F7DF9CFCF93DF93282F30E0FD
:10033000F901E65CFD4F8491F901E459FD4FD49138
:10034000F901E85AFD4FC491CC23A1F081110E941C
:100350006B01EC2FF0E0EE0FFF1FE25BFD4FA5916C
:10036000B491EC91ED2381E090E009F480E0DF911D
:10037000CF91089580E090E0FACF1F93CF93DF9361
:10038000282F30E0F901E65CFD4F8491F901E45932
:10039000FD4FD491F901E85AFD4FC491CC23A9F047
:1003A000162F81110E946B01EC2FF0E0EE0FFF1F62
:1003B000E05DFD4FA591B4918FB7F894EC911111C8
:1003C00008C0D095DE23DC938FBFDF91CF911F91C2
:1003D0000895DE2BF8CFCF93DF9390E0FC01E45932
:1003E000FD4F2491885A9D4FFC0184918823D1F0C0
:1003F00090E0880F991FFC01EA5DFD4FA591B49133
:10040000FC01E05DFD4FC591D49161110EC09FB715
:10041000F8948C91E22FE0958E238C932881E2232F
:10042000E8839FBFDF91CF9108958FB7F894EC9147
:10043000E22BEC938FBFF6CF8E50806480937C00CC
:1004400080917A00806480937A0080917A0086FDA2
:10045000FCCF809178009091790008953FB7F8948F
:100460008091540290915502A0915602B09157028A
:1004700026B5A89B05C02F3F19F00196A11DB11DFF
:100480003FBFBA2FA92F982F8827BC01CD01620F3B
:10049000711D811D911D42E0660F771F881F991FF6
:1004A0004A95D1F708950895AF92BF92CF92DF9207
:1004B000EF92FF920F931F93CF93DF936C017B0119
:1004C0008B01040F151FEB015E01AE18BF08C017AA
:1004D000D10759F06991D601ED91FC910190F0811D
:1004E000E02DC6010995892B79F7C501DF91CF91E0
:1004F0001F910F91FF90EF90DF90CF90BF90AF9042
:100500000895FC01448155816081718188E592E004
:100510000C945402FC01538D448D252F30E0842F20
:1005200090E0821B930B541710F0CF96089501971B
:100530000895FC01918D828D981761F0A28DAE0F08
:10054000BF2FB11D5D968C91928D9F5F9F73928F8F
:1005500090E008958FEF9FEF0895FC01918D828DBB
:10056000981731F0828DE80FF11D858D90E0089588
:100570008FEF9FEF0895FC01918D228D892F90E0E0
:10058000805C9F4F821B91098F739927089588E59E
:1005900092E00E94BB0221E0892B09F420E0822F27
:1005A000089580E090E0892B29F00E94C702811114
:1005B0000C9400000895FC01A48DA80FB92FB11D63
:1005C000A35ABF4F2C91848D90E001968F73992789
:1005D000848FA689B7892C93A089B1898C91837067
:1005E00080648C93938D848D981306C00288F38960
:1005F000E02D80818F7D80830895EF92FF920F938D
:100600001F93CF93DF93EC0181E0888F9B8D8C8DBE
:1006100098131AC0E889F989808185FF15C09FB7B2
:10062000F894EE89FF896083E889F9898081837075
:10063000806480839FBF81E090E0DF91CF911F9124
:100640000F91FF90EF900895F62E0B8D10E00F5F45
:100650001F4F0F731127E02E8C8D8E110CC00FB61B
:1006600007FCFACFE889F989808185FFF5CFCE01B3
:100670000E94DB02F1CFEB8DEC0FFD2FF11DE35A51
:10068000FF4FF0829FB7F8940B8FEA89FB89808136
:100690008062CFCFCF93DF93EC01888D8823B9F0B0
:1006A000AA89BB89E889F9898C9185FD03C080817D
:1006B00086FD0DC00FB607FCF7CF8C9185FFF2CFFA
:1006C000808185FFEDCFCE010E94DB02E9CFDF9173
:1006D000CF910895DC0180E0615090F09D919827C2
:1006E000E92FEF70F0E0E454FE4F2491E92FE295FA
:1006F000EF70F0E0E453FE4FE491822F8E27ECCFB1
:100700000895DC012C911196ED91FC91F894818172
:10071000822B81839281322F30959323928387E0BD
:1007200090E00197F1F781818323818383E290E058
:100730000197F1F790817894EFECF0E03197F1F7C1
:10074000922381E009F480E00895FC01908101800A
:10075000F281E02D292F209560FF14C0F89482814A
:10076000822382838181892B8183A3E2B0E0119768
:10077000F1F78281982B9283789487ED90E001972E
:10078000F1F70895F8948281822382838181892BF5
:100790008183AFEFB0E01197F1F78281982B9283BC
:1007A00078948FE090E0EBCFEF92FF920F931F933E
:1007B000CF93DF93EC01E62E08E010E0FF24F394E2
:1007C00061E08E2D8F2109F460E0CE010E94A50327
:1007D000FF0C01501109A1F7F894E981FA81918188
:1007E0008881809589238183E981FA81928188813A
:1007F0008095892382837894DF91CF911F910F9107
:10080000FF90EF900895EF92FF920F931F93CF9375
:10081000DF938C017B0165E50E94D403E70188E04A
:10082000E80EF11C6991C8010E94D403CE15DF05C2
:10083000C9F7DF91CF911F910F91FF90EF9008952D
:10084000FC0190810180F281E02DF8948181292FB3
:1008500020958223818378943DE743E050E0315036
:1008600029F1DA011197F1F780818923C1F3F89416
:100870008281822382838181892B81837894ABE773
:10088000B7E01197F1F7F894818182238183A3E186
:10089000B1E01197F1F78081982381E009F080E0C1
:1008A0007894E3E6F6E03197F1F7089580E0089553
:1008B0002091E901260F3327331F21323105ECF453
:1008C00020910D02FC0190E080E0243069F082E08C
:1008D0000895A091E9012191AC0147535E4FA40F07
:1008E000B52FB11D2C930196861798F38091E901DD
:1008F000680F6093E90180E0089581E0089508950C
:100900008FEF9FEF08958FEF9FEF08958091C201C1
:1009100090E09195819591090895CF93DF93CB0154
:10092000EA01642F0E945804CE01DF91CF9108950F
:10093000CF93DF931F92CDB7DEB7698361E0CE011D
:1009400001960E94580481E090E00F90DF91CF91D2
:10095000089590E080E0089542E050E06CE171E09D
:1009600088E592E00C9454020F931F93CF93DF938A
:100970008C01D0E0C0E0F801EC0FFD1F649166230C
:1009800041F088E592E00E94FD02892B11F021964A
:10099000F2CF0E94AC048C0F9D1FDF91CF911F916D
:1009A0000F910895CF93DF93FC0101900020E9F7A8
:1009B0003197AF01481B590BBC0188E592E00E94BA
:1009C0005402EC010E94AC048C0F9D1FDF91CF916B
:1009D00008950F931F93CF93C82F8A016623E9F0E0
:1009E0000E949401019771F060E08C2F0E94BD017C
:1009F000C8010E9481028FE191E0CF911F910F9178
:100A00000C94D2048C2F0E9494010197F9F4C80130
:100A10000E9481028CE291E0F0CF0E949401892B28
:100A200051F061E08C2F0E94BD01C8010E9481023B
:100A30008BE391E0E2CF8C2F0E949401892B31F45B
:100A4000C8010E94810289E491E0D7CFCF911F9124
:100A50000F9108950F931F93CF93DF93EC0188813B
:100A60009981009759F02A813B812617370730F08A
:100A700081E0DF91CF911F910F9108958B016F5FFE
:100A80007F4F0E949F12009759F0998388831B83A0
:100A90000A832C813D81232B59F7FC011082E8CF7A
:100AA00080E0E7CFCF93DF93EC01888199810097B5
:100AB00011F00E941612198218821D821C821B825C
:100AC0001A82DF91CF910895EF92FF920F931F93B7
:100AD000CF93DF93EC017B01198218821B821A826B
:100AE0001D821C82FB0101900020E9F731978F01E4
:100AF000061B170BB8010E942A05811109C0CE01FF
:100B0000DF91CF911F910F91FF90EF900C945205C0
:100B10001D830C83B70188819981DF91CF911F914B
:100B20000F91FF90EF900C946513FC0180819181EF
:100B3000009711F00C94161208951F93CF93DF9332
:100B400085ED8093BC008091C5019091C601A09174
:100B5000C701B091C8010796A11DB11D23E0B6954C
:100B6000A795979587952A95D1F72091BC0024FDEC
:100B700003C010920D0252C04091C5015091C601B0
:100B80006091C7017091C801452B462B472B69F333
:100B90000097A105B10541F025E32A95F1F7000082
:100BA0000197A109B109E1CF8091C401C1E0C093CF
:100BB000C301882399F1D091B8001091BA008091B7
:100BC000BC008A7B8093BC0060E082E10E94BD0192
:100BD00060E083E10E94BD0110920D02C0930F02FC
:100BE00010920E0261E082E10E94BD0161E083E1AA
:100BF0000E94BD018091B9008E7F8093B9008091E1
:100C0000B9008D7F8093B90088E48093B80085E4B3
:100C10008093BC001093BA00D093B800DF91CF91BD
:100C20001F910895CF92DF92EF92FF922AE038E26F
:100C300040EA5BE30E94E50E6B017C01AC019B0185
:100C400060E070E080EA90E40E94E00F20E030E491
:100C50004CE156E40E944D109B01AC01C701B60166
:100C60000E944D1020E030E44CE156E40E944D100B
:100C70000E94FD1020E030E948E755E40E944D1045
:100C80002FE03FEC4BE55BE30E94E10F9B01AC01E1
:100C900060E070E080E89FE30E944D1023E333E9B9
:100CA00048E853E40E94E00FFF90EF90DF90CF9070
:100CB00008951F920F920FB60F9211242F933F9316
:100CC0008F939F93AF93BF93809150029091510265
:100CD000A0915202B091530230914F0223E0230FB2
:100CE0002D3758F50196A11DB11D20934F02809319
:100CF000500290935102A0935202B09353028091FC
:100D0000540290915502A0915602B091570201965B
:100D1000A11DB11D8093540290935502A0935602D9
:100D2000B0935702BF91AF919F918F913F912F91B7
:100D30000F900FBE0F901F90189526E8230F029674
:100D4000A11DB11DD2CF1F920F920FB60F92112489
:100D50002F933F934F935F936F937F938F939F93C3
:100D6000AF93BF93EF93FF93E0910201F0910301E2
:100D70000995FF91EF91BF91AF919F918F917F91D5
:100D80006F915F914F913F912F910F900FBE0F90F8
:100D90001F9018951F920F920FB60F9211242F9348
:100DA0003F934F935F936F937F938F939F93AF93F3
:100DB000BF93EF93FF93E0910001F091010109953A
:100DC000FF91EF91BF91AF919F918F917F916F9123
:100DD0005F914F913F912F910F900FBE0F901F90F9
:100DE00018951F920F920FB60F9211242F933F93D5
:100DF0004F935F936F937F938F939F93AF93BF9323
:100E0000EF93FF9388E592E00E94DB02FF91EF9160
:100E1000BF91AF919F918F917F916F915F914F9112
:100E20003F912F910F900FBE0F901F9018951F921A
:100E30000F920FB60F9211242F938F939F93EF93DE
:100E4000FF93E0916802F09169028081E0916E0267
:100E5000F0916F0282FD1BC09081809171028F5FC3
:100E60008F7320917202821741F0E0917102F0E0DD
:100E7000E85AFD4F958F80937102FF91EF919F91FA
:100E80008F912F910F900FBE0F901F90189580811A
:100E9000F4CF1F920F920FB60F9211242F933F930E
:100EA0004F935F936F937F938F939F93AF93BF9372
:100EB000EF93FF938091B900887F803609F44AC090
:100EC000F0F5883209F4A5C018F5803109F499C00D
:100ED000B8F4882309F4F5C0883009F492C0FF9172
:100EE000EF91BF91AF919F918F917F916F915F91A2
:100EF0004F913F912F910F900FBE0F901F9018951B
:100F0000883109F486C0803251F780930C0214C0F6
:100F1000803409F49BC040F48033B9F38833F9F688
:100F200080930C0285ECAEC0803509F483C088350F
:100F300009F494C0883499F60E949D05D0CF883971
:100F400009F48AC038F5883729F050F4883611F052
:100F5000803729F683E080930D0210920B0255C072
:100F6000883809F479C0803919F0803809F0B7CF92
:100F700080910B02803208F06FC0E0910B0281E09B
:100F80008E0F80930B028091BB00F0E0E551FE4F85
:100F900080833BC0803B39F0D0F4803A09F477C0BD
:100FA000883A09F09CCF84E080930D021092EA0108
:100FB0001092E901F0E0E0E009958091E9018111EA
:100FC0000FC081E08093E9011092C90109C0803C03
:100FD00009F4A8CF883C09F4A5CF883B09F07FCF5E
:100FE000E091EA0181E08E0F8093EA01F0E0E7539F
:100FF000FE4F80818093BB009091EA018091E901CE
:1010000029C0809132028093BB0085EC8093BC00A4
:1010100066CF9091310280913002981758F5E09197
:10102000310281E08E0F80933102F0E0E05FFD4FEE
:101030008081E9CFE091310281E08E0F809331020F
:101040008091BB00F0E0E05FFD4F80839091310222
:10105000809130029817C8F285E8D8CFE09131022C
:1010600081E08E0F809331028091BB00F0E0E05F61
:10107000FD4F808380910F0281115ECF81E08093CC
:101080000E0284EA8093BC0010920D0228CF85ECFA
:101090008093BC0010920D0280910B02803230F4DC
:1010A000E0910B02F0E0E551FE4F108260910B02DF
:1010B00070E08BEE91E0F0E0E0E0099510920B0219
:1010C0000ECF10920C0238CFE8E5F2E013821282C4
:1010D00088EE93E0A0E0B0E084839583A683B78395
:1010E0008EE091E09183808385EC90E09587848702
:1010F00084EC90E09787868780EC90E0918B808BE2
:1011000081EC90E0938B828B82EC90E0958B848BCA
:1011100086EC90E0978B868B118E128E138E148E38
:1011200060E082E00E94EB01EEE6F2E0E491ACE0E8
:10113000B3E0EC93EAE5F2E0E491F0E0EE0FFF1F9C
:10114000E25BFD4F8591949112969C938E9311973B
:101150001B961C921B971D961C921D971C961C9209
:101160001C971A961C921A9719961C921997189602
:101170001C92189717961C92179716961C92169702
:1011800015961C92159714961C92149713961C9200
:101190001397E5EFF2E0168A158A1182B287A187CC
:1011A00017821086108289E0838381E0848385839F
:1011B00086830895CF93DF93CDB7DEB7A9970FB697
:1011C000F894DEBF0FBECDBF789484B5826084BD35
:1011D00084B5816084BD85B5826085BD85B581603B
:1011E00085BD80916E00816080936E0010928100B9
:1011F0008091810082608093810080918100816074
:101200008093810080918000816080938000809134
:10121000B10084608093B1008091B00081608093C0
:10122000B00080917A00846080937A0080917A0087
:10123000826080937A0080917A00816080937A0046
:1012400080917A00806880937A001092C100E091CA
:101250006802F091690282E08083E0916402F0917B
:1012600065021082E0916602F09167028FEC808344
:1012700010927002E0916C02F0916D0286E0808322
:10128000E0916A02F0916B02808180618083E0913D
:101290006A02F0916B02808188608083E0916A022B
:1012A000F0916B02808180688083E0916A02F09106
:1012B0006B0280818F7D80830E942E024B015C0136
:1012C00048EEC42E43E0D42EE12CF12C0E942E02D5
:1012D000681979098A099B09683E7340810591055F
:1012E000A8F321E0C21AD108E108F10888EE880EBF
:1012F00083E0981EA11CB11CC114D104E104F104C7
:1013000029F769E571E0CE0101960E946405AE01FE
:101310004F5F5F4F61E083E00E94E904CE010196D8
:101320000E94950561E083E00E94EB0160E08EE0A1
:101330000E94EB0160E08FE00E94EB0160E080E141
:101340000E94EB0180EF91E00E94B404E091FE0264
:10135000F091FF0213861586148612861186108678
:10136000178216821582148213821092FC02109248
:10137000FD0277247394662463946E01BAE0CB0E69
:10138000D11C0091FE021091FF02F801858588238F
:1013900009F425C1D8011B961C921B971D961C921F
:1013A0001D971C961C928CED91E00E94B40484E67B
:1013B000E82E81E0F82E93E3C92E92E0D92E20E0AA
:1013C000A22E20E0B22E8FE00E941C02BC01990FD9
:1013D000880B990B0E94AA0E0E941206162F072F47
:1013E000982E892E862F902FA92DB82D80934B02F1
:1013F00090934C02A0934D02B0934E028EE00E9457
:101400001C02BC01990F880B990B0E94AA0E0E9426
:1014100012069B01AC01CB01DA0180934702909345
:101420004802A0934902B0934A025F934F933F93BF
:101430002F938F929F920F931F93FF92EF92DF92C1
:10144000CF920E946C1383E392E00E94D2046091D9
:101450004B0270914C0280914D0290914E020E947D
:10146000BF100FB6F894DEBF0FBECDBF6E30710552
:101470000CF0D5C16DE871E0CE0101960E946405C3
:10148000AE014F5F5F4F60E081E00E94E904CE0152
:1014900001960E94950566E971E0CE0101960E94D1
:1014A0006405AE014F5F5F4F60E082E00E94E90497
:1014B000CE0101960E949505609147027091480205
:1014C0008091490290914A020E94BF1064317105D7
:1014D0000CF0B5C16FE971E0CE0101960E94640580
:1014E000AE014F5F5F4F60E083E00E94E904CE01F0
:1014F00001960E94950580E10E941C02BC01990F93
:10150000880B990B0E94AA0E0E9412061BA21AA217
:101510001DA21CA21FA21EA28E010F5F1F4F22E060
:1015200044E00E94530C8C01009779F0FC0101907B
:101530000020E9F731974F01881A990AB401CE01CA
:1015400082960E942A05811189C1CE0182960E944D
:1015500052056BEA71E0CE0101960E9464058AA0F3
:101560009BA08114910409F481C10EA11FA1011552
:101570001105B9F08D819E81080F191FB801CE01A8
:1015800001960E942A05882309F470C129813A81B5
:101590008D819E81B401820F931F0E9465131E836B
:1015A0000D83CE0101960E9481020E94AC04CE01FF
:1015B00001960E949505CE0182960E9495058EE0C7
:1015C00092E00E94B404A114B10409F4FCCE0E947C
:1015D000C702882309F4F7CE0E940000F4CEC801A8
:1015E0000E942004811105C0F80113861586148617
:1015F000DACE60EFC8010E94D403EE24E394A12C5C
:10160000912CFF24F394C8010E948103B82EC801D5
:101610000E948103F1E0BF1272C0813009F091C0D5
:10162000E0E4EF1508F0B6CED8011B969C921B970C
:10163000911002C01D967C92F8018381882309F4E1
:10164000A9CED8011396FE01B296055F1F4F7F0108
:101650008D918193A017B107D9F767E0C7010E9468
:101660006A0399A589138DCE8091FC028F5F8093C8
:10167000FC028AA1883239F008F07AC0803119F072
:10168000823209F07ECE8091FD028F5F8093FD0251
:101690008091FE029091FF022091F502211121C05C
:1016A0000E942004B7018091FE029091FF020E94E7
:1016B000030464EB8091FE029091FF020E94D40328
:1016C0008091FE029091FF020E948103182F809169
:1016D000FE029091FF020E942004111102C060924C
:1016E000F5028091FE029091FF022AA1203109F4B7
:1016F00089C00E942004811142C080E086C0EA2D8A
:10170000F0E0B81214C0D8011B968C911B97F81604
:10171000B0F4AE0FBF1F13968C918E2191F4B12CB3
:10172000B8E0BF1518F0D8011C96FC929F2CE00F72
:10173000F11F83819E2D9095892383830AC08F1189
:10174000EECFF801EA0DF11D83818E298383BB243E
:10175000B3946B2DC8010E94A503F394EE0C19F409
:10176000A394EE24E394B7E0BA1508F04CCF58CF19
:101770008B3309F488CF823409F003CE84CFB701CC
:101780008091FE029091FF020E9403046EEB809113
:10179000FE029091FF020E94D403CE0101967C01CB
:1017A0008C018090FE029090FF0238E0A32EB12CB5
:1017B000512C44244394C4010E9481038111542874
:1017C000440C91E0A91AB108B1F7D8015D928D01DE
:1017D000CA16DB0631F78091FE029091FF020E944B
:1017E0002004813009F089CFF70181917F018111B7
:1017F00042C0E017F107C1F780CF8F3571F08F3706
:1018000009F07BCF8CE001C08AE09091F802981734
:1018100008F0B7CD8093F802B4CD8BE0F6CF6731F6
:1018200071050CF449CE6DE871E0CE0101960E947D
:101830006405AE014F5F5F4F61E081E037CE6E32ED
:1018400071050CF458CE6FE971E0CE0101960E944B
:101850006405AE014F5F5F4F61E046CE9FA28EA24E
:10186000B8018AA19BA10E94651373CECE01019697
:101870000E94520596CE68E0CE0101960E946A034E
:10188000998589133ACF8D819AA19B3311F487FDF5
:10189000B9CF8F3309F4B8CF08F0AFCF8F3109F04B
:1018A0002CCF89E0B2CFEF920F931F93CF93DF93AA
:1018B000E80134E047FD34E1042E000C550B57FFDE
:1018C00003C0519541955109E32E022F242FAE01FB
:1018D0000E94710CCE01DF91CF911F910F91EF907B
:1018E0000895A9E0B0E0E7E7FCE00C94A90F6A01D5
:1018F000F22EB02E102FFBE3AF2EA01608F41BE340
:101900001F5F012F27E0AE014F5F5F4F0E94D00D98
:10191000BC018981982F9970913009F43FC09BE2F6
:10192000E1FC04C09E2D9170E0FC3AC05E2D507128
:10193000E82FE87083FF46C084E0911101C083E086
:10194000EF2DE81B8F1508F0E0E0D6018E2F20E286
:10195000552351F1992329F0D6019C93C601019694
:101960006C0196012D5F3F4FE2FE24C08EE4D6014C
:101970008C9391E411969C93119712968C93D901B4
:101980008E2F90E281111BC0E20FF32FF11D108208
:101990008EEF9FEF2996ECE00C94C50F9DE2C6CF29
:1019A00090E2C4CF2D9381508111FCCFCE0ED11C7B
:1019B000E0E0D0CF8EE6D6018C9391E6DBCF9D930D
:1019C0008150E0CF482F447082FF3DC084E09111E8
:1019D00001C083E08F1510F4EF2DE81BD6018E2F88
:1019E00020E2552309F1992329F0D6019C93C601E1
:1019F00001966C0196012D5F3F4FE2FE1BC089E40A
:101A0000D6018C938EE411968C93119786E41296EE
:101A10008C93D9018E2F90E2882309F4B5CF9D9342
:101A20008150FACF2D9381508111FCCFCE0ED11C65
:101A3000E0E0D9CF89E6D6018C938EE611968C939F
:101A4000119786E6E4CF9B0177FF02C030E020E0EB
:101A5000A1E0B0E0911102C0B0E0A0E0F901319640
:101A6000AE0FBF1F8B2C912CBB2009F461C0540119
:101A7000EFEFAE1ABE0AAA0DBB1DFA161B0619F02F
:101A800014F04F2D4A1B511188C0E3FC59C0760158
:101A9000A42FB0E2A1114FC0C40ED11C992309F4A8
:101AA0005BC040E0D6011196F60190836D0155238D
:101AB00009F448C0012F060F9A81582F507184FFF6
:101AC00003C0913309F4015010160CF047C00930DF
:101AD00008F008E0EEE2FE2E5B01A01AB1088501D5
:101AE0009194819491082F3F320729F4D601FC92FA
:101AF000F60131966F016217730794F1021713070D
:101B00007CF5DB01A21BB30BAA24A394B12CAC0E71
:101B1000BD1EAA0DBB1D11968C9121503109D60115
:101B2000119628153905F4F0F60180836D01DBCF9D
:101B3000B12CA12CA0CFF701B1937F01A150AACF66
:101B40009111B0CFD601942F50E302C05D93915014
:101B50009111FCCFC40ED11C40E0ACCF01E0BACF54
:101B600080E3DBCF6217730731F4963388F4953343
:101B700011F4552369F0F6018083FD01842F90E272
:101B8000811108C0A40FB11D1C9290E080E002CF2B
:101B900081E3F1CF91938150F3CF911183CF8ACF1D
:101BA000283008F027E03327DA01990F311D87FD2F
:101BB000916000966105710539F432602E5F3D93A6
:101BC00030E32A95E1F708959F3F30F080387105A2
:101BD000610509F03C5F3C5F3D93913008F08068FF
:101BE000911DDF93CF931F930F93FF92EF92192FC5
:101BF000987F9695E92F96959695E90FFF27E45ED5
:101C0000FE4F99273327EE24FF24A701E701059013
:101C10000894079428F4360FE71EF81E491F511D3B
:101C2000660F771F881F991F0694A1F705900794E8
:101C300028F4E70EF81E491F561FC11D770F881F95
:101C4000991F661F0694A1F70590079428F4F80ED3
:101C5000491F561FC71FD11D880F991F661F771F69
:101C60000694A1F70590079420F4490F561FC71F4B
:101C7000D81F990F661F771F881F0694A9F78491B4
:101C80001095177041F0D695C79557954795F794DD
:101C9000E7941A95C1F7E2ECF0E06894159015917D
:101CA00035916591959105907FE27395E118F10A60
:101CB000430B560BC90BD009C0F7E10CF11E431FB3
:101CC000561FC91FD01D7EF4703311F48A95E6CFDC
:101CD000E894015030F0080F0AF40027021708F4C6
:101CE000202F2395022F7A3328F079E37D932A95CC
:101CF000E9F710C07D932A9589F606949795679524
:101D0000379517951794E118F10A430B560BC90B39
:101D1000D00998F023957E9173957A3308F070E39B
:101D20007C932013B8F77E9170617D9330F083959A
:101D300071E37D9370E32A95E1F71124EF90FF9012
:101D40000F911F91CF91DF91992787FD909508956D
:101D5000E89409C097FB3EF4909580957095619545
:101D60007F4F8F4F9F4F9923A9F0F92F96E9BB27FB
:101D70009395F695879577956795B795F111F8CF77
:101D8000FAF4BB0F11F460FF1BC06F5F7F4F8F4FE2
:101D90009F4F16C0882311F096E911C0772321F0D8
:101DA0009EE8872F762F05C0662371F096E8862F70
:101DB00070E060E02AF09A95660F771F881FDAF7C7
:101DC000880F9695879597F908950E94F80E0C94C0
:101DD000690F0E945B0F38F00E94620F20F095237C
:101DE00011F00C94520F0C94580F11240C949D0F69
:101DF0000E947A0F70F3959FC1F3950F50E0551F25
:101E0000629FF001729FBB27F00DB11D639FAA274F
:101E1000F00DB11DAA1F649F6627B00DA11D661F9E
:101E2000829F2227B00DA11D621F739FB00DA11DBF
:101E3000621F839FA00D611D221F749F3327A00D79
:101E4000611D231F849F600D211D822F762F6A2F15
:101E500011249F5750409AF0F1F088234AF0EE0F7A
:101E6000FF1FBB1F661F771F881F91505040A9F7A7
:101E70009E3F510580F00C94520F0C949D0F5F3FD4
:101E8000E4F3983ED4F3869577956795B795F795E3
:101E9000E7959F5FC1F7FE2B880F911D969587955B
:101EA00097F9089597F99F6780E870E060E00895DA
:101EB0009FEF80EC089500240A9416161706180662
:101EC0000906089500240A9412161306140605063E
:101ED0000895092E0394000C11F4882352F0BB0FCF
:101EE00040F4BF2B11F460FF04C06F5F7F4F8F4F32
:101EF0009F4F089557FD9058440F551F59F05F3F6D
:101F000071F04795880F97FB991F61F09F3F79F01B
:101F100087950895121613061406551FF2CF46959D
:101F2000F1DF08C0161617061806991FF1CF86951F
:101F30007105610508940895E894BB276627772703
:101F4000CB0197F908952F923F924F925F926F9233
:101F50007F928F929F92AF92BF92CF92DF92EF9239
:101F6000FF920F931F93CF93DF93CDB7DEB7CA1BBA
:101F7000DB0B0FB6F894DEBF0FBECDBF09942A88E5
:101F8000398848885F846E847D848C849B84AA848D
:101F9000B984C884DF80EE80FD800C811B81AA811A
:101FA000B981CE0FD11D0FB6F894DEBF0FBECDBFE5
:101FB000ED010895EE0FFF1F0590F491E02D0994B7
:101FC0005058BB27AA270E94F80F0C94690F0E9453
:101FD0005B0F38F00E94620F20F039F49F3F19F434
:101FE00026F40C94580F0EF4E095E7FB0C94520F76
:101FF000E92F0E947A0F58F3BA1762077307840714
:10200000950720F079F4A6F50C949C0F0EF4E0955A
:102010000B2EBA2FA02D0B01B90190010C01CA01A2
:10202000A0011124FF27591B99F0593F50F4503E4D
:1020300068F11A16F040A22F232F342F4427585F3F
:10204000F3CF469537952795A795F0405395C9F757
:102050007EF41F16BA0B620B730B840BBAF091500F
:10206000A1F0FF0FBB1F661F771F881FC2F70EC0AE
:10207000BA0F621F731F841F48F487957795679581
:10208000B795F7959E3F08F0B0CF9395880F08F06D
:102090009927EE0F9795879508950E9461100C94EB
:1020A000690F0E94620F58F00E945B0F40F029F404
:1020B0005F3F29F00C94520F51110C949D0F0C941A
:1020C000580F0E947A0F68F39923B1F3552391F3C7
:1020D000951B550BBB27AA2762177307840738F097
:1020E0009F5F5F4F220F331F441FAA1FA9F335D0F4
:1020F0000E2E3AF0E0E832D091505040E695001CA8
:10210000CAF72BD0FE2F29D0660F771F881FBB1F61
:10211000261737074807AB07B0E809F0BB0B802D3F
:10212000BF01FF2793585F4F3AF09E3F510578F06B
:102130000C94520F0C949D0F5F3FE4F3983ED4F340
:10214000869577956795B795F7959F5FC9F7880F3F
:10215000911D9695879597F90895E1E0660F771F91
:10216000881FBB1F621773078407BA0720F0621B22
:10217000730B840BBA0BEE1F88F7E09508950E944D
:10218000C6106894B1110C949D0F08950E94820F9F
:1021900088F09F5798F0B92F9927B751B0F0E1F028
:1021A000660F771F881F991F1AF0BA95C9F714C0D8
:1021B000B13091F00E949C0FB1E008950C949C0FF7
:1021C000672F782F8827B85F39F0B93FCCF3869511
:1021D00077956795B395D9F73EF49095809570956E
:1021E00061957F4F8F4F9F4F089516F00C944511C6
:1021F0000C94580F68940C94520F0E94820FA8F30D
:102200009923C1F3AEF3DF93CF931F930F93FF9204
:10221000C92FDD2788232AF02197660F771F881F93
:10222000DAF720E030E040E85FEB9FE3883920F008
:10223000803E38F021968F770E94E10FE8E6F0E0CB
:1022400004C00E94E10FE5E9F0E00E9453118B0108
:10225000BE01EC01FB2E6F5771097595771F880B36
:10226000990B0E94AA0E28E132E741E35FE30E9446
:10227000F80EAF2D9801AE01FF900F911F91CF91F5
:10228000DF910E94F80F0C94690F9F3F31F091503D
:1022900020F4879577956795B795880F911D96954A
:1022A000879597F90895DF93CF931F930F93FF922C
:1022B000EF92DF927B018C01689406C0DA2EEF0169
:1022C0000E94F80EFE01E894A59125913591459163
:1022D0005591A6F3EF010E94F80FFE019701A801A6
:1022E000DA9469F7DF90EF90FF900F911F91CF91F3
:1022F000DF9108950F931F93CF93DF938230910561
:1023000010F482E090E0E0911C03F0911D0330E0B6
:1023100020E0B0E0A0E0309799F42115310509F4F0
:102320004AC0281B390B24303105D8F58A819B819E
:102330006115710589F1FB0193838283FE0111C050
:10234000408151810281138148175907E0F04817F5
:10235000590799F4109761F012960C9312971396FF
:102360001C933296CF01DF91CF911F910F91089569
:1023700000931C0310931D03F4CF2115310551F078
:102380004217530738F0A901DB019A01BD01DF01B3
:10239000F801C1CFEF01F9CF90931D0380931C0387
:1023A000CDCFFE01E20FF31F8193919322503109AB
:1023B00039832883D7CF20911A0330911B03232B15
:1023C00041F4209106013091070130931B032093C3
:1023D0001A0320910401309105012115310541F4C2
:1023E0002DB73EB74091080150910901241B350BD0
:1023F000E0911A03F0911B03E217F307A0F42E1BE0
:102400003F0B2817390778F0AC014E5F5F4F241758
:10241000350748F04E0F5F1F50931B0340931A037C
:10242000819391939FCFF0E0E0E09CCFCF93DF9337
:102430000097E9F0FC01329713821282A0911C03ED
:10244000B0911D03ED0130E020E01097A1F4208150
:102450003181820F931F20911A0330911B0328179B
:10246000390709F061C0F0931B03E0931A03DF9171
:10247000CF910895EA01CE17DF07E8F54A815B8125
:102480009E0141155105B1F7E901FB83EA834991AA
:102490005991C40FD51FEC17FD0761F4808191811C
:1024A0000296840F951FE901998388838281938125
:1024B0009B838A83F0E0E0E012968D919C911397C4
:1024C0000097B9F52D913C911197CD010296820F9D
:1024D000931F20911A0330911B032817390739F6EF
:1024E000309751F510921D0310921C03B0931B03FB
:1024F000A0931A03BCCFD383C28340815181840F40
:10250000951FC817D90761F44E5F5F4F8881998185
:10251000480F591F518340838A819B819383828313
:102520002115310509F0B0CFF0931D03E0931C0392
:102530009ECFFD01DC01C0CF13821282D7CFB0E065
:10254000A0E0E5EAF2E10C94A50F8C01009751F4AC
:10255000CB010E947A118C01C801CDB7DEB7E0E152
:102560000C94C10FFC01E60FF71F9C0122503109AA
:10257000E217F30708F49DC0D901CD91DC911197C2
:10258000C617D70798F0C530D10530F3CE010497B0
:102590008617970708F3C61BD70B2297C193D193D1
:1025A0006D937C93CF010E941612D6CF5B01AC1ABB
:1025B000BD0A4C018C0E9D1EA0911C03B0911D0301
:1025C000512C412CF12CE12C109731F580911A03FC
:1025D00090911B038815990509F05CC046165706B3
:1025E00008F058C08091040190910501009741F4D2
:1025F0008DB79EB74091080150910901841B950B3E
:10260000E817F90708F055C0F0931B03E0931A038D
:10261000F90171836083A0CF8D919C9111971296DF
:102620006C90129713967C901397A815B90559F5DD
:102630006C0142E0C40ED11CCA14DB0420F1AC01D1
:102640004A195B09DA011296159780F0628273824B
:1026500051834083D9016D937C93E114F10471F0AF
:10266000D7011396FC93EE93129776CF22968C0F98
:102670009D1FF90191838083F301EFCFF0931D0338
:10268000E0931C0369CF4816590608F42C017D011C
:10269000D3019ACFCB010E947A117C01009749F0B7
:1026A000AE01B8010E945C13C8010E941612870196
:1026B00053CF10E000E050CFFB01DC0102C00190DD
:1026C0000D9241505040D8F70895FB01DC01019074
:1026D0000D920020E1F70895AEE0B0E0E2E7F3E10B
:1026E0000C94B10F0D891E8986E08C831A830983AF
:1026F0008FEF9FE79E838D83AE01475E5F4F6F89AB
:10270000788DCE0101960E948F132F813885020F9C
:10271000131FF80110822E96E4E00C94CD0FABE06D
:10272000B0E0E5E9F3E10C94A30F7C013B018A01E1
:10273000FC0117821682838181FFC8C1CE010196F8
:102740005C01F7019381F30193FD859193FF8191E2
:102750003F01882309F453C1853239F493FD8591F3
:1027600093FF81913F01853229F4B70190E00E94E7
:102770007F15E7CF912C212C312CFFE1F31538F098
:102780008B3211F190F4803209F1833229F137FC58
:102790003CC020ED280F2A3050F536FE20C08AE0DC
:1027A000989E200D1124922E06C08D3291F0803318
:1027B00071F7689430F8F30193FD859193FF81914F
:1027C0003F018111DACF21C0689431F8689432F862
:1027D000F2CF689433F8EFCF689434F8ECCFEAE0A6
:1027E0002E9E200D1124222E689435F8E4CF8E32CF
:1027F00029F436FC04C1689436F8DDCF8C3619F420
:10280000689437F8D8CF8836B1F2982F9F7D9554C9
:102810009330E0F08336A1F18337C1F1833509F0BD
:1028200063C02801F2E04F0E511CF801C080D18036
:10283000692D70E036FC02C06FEF7FEFC6010E9489
:1028400069154C01689437F882010AC00C5F1F4F6C
:10285000FFE3F98388248394912C6501E89437F889
:1028600033FE2DC0522C8114910471F5552009F4CA
:1028700068CFB70180E290E00E947F155A94F6CFAE
:10288000F801808189830E5F1F4FE4CF2801F2E0B9
:102890004F0E511CF801C080D180692D70E036FCCC
:1028A00002C06FEF7FEFC6010E9474154C018201D8
:1028B000D5CFB70180E290E00E947F152A942814BA
:1028C000190409F0B0F7CECFF60137FC859137FE39
:1028D00081916F01B70190E00E947F1551105A94C9
:1028E000F1E08F1A9108BFCF843619F0893609F0CC
:1028F00077C0F80137FE6BC060817181828193815E
:102900000C5F1F4FF32DFF763F2E97FF09C0909568
:102910008095709561957F4F8F4F9F4F689437F8E2
:102920002AE030E0A5010E94AF15C82ECA188C2CF1
:10293000432C36FE0CC0E89440F8C91440F434FE31
:1029400005C032FC03C0F32DFE7E4F2E892C44FEC1
:1029500095C0FE01EC0DF11D8081803309F087C028
:10296000242D297E422E842D8870582E43FC95C03C
:1029700040FE8FC09C2C821418F42C0C922C9818BA
:1029800044FE91C0B70180E390E00E947F1542FEB3
:1029900009C088E790E041FE02C088E590E0B701F9
:1029A0000E947F15C91408F48AC0CA94D12C9FEFE5
:1029B000C91AD90ACA0CDB1CF60182916F01B70152
:1029C00090E00E947F15AC14BD04B1F74FCF608139
:1029D0007181072E000C880B990B0E5F1F4F92CF51
:1029E000D32CE894D4F82AE030E0853739F1232D50
:1029F000297FD22E8F3601F148F48835A9F0F701EE
:102A0000868197812B96E2E10C94BF0F803749F0C5
:102A10008837A9F7D4FE02C06894D2F820E130E0EC
:102A20000DC06894D4F8F6CF34FE03C0822F8660C0
:102A3000D82E20E132E002C028E030E0F801D7FED5
:102A40000FC060817181828193810C5F1F4FA5014E
:102A50000E94AF15C82ECA183D2CE89437F867CFEE
:102A60006081718190E080E00E5F1F4FF0CF42FCEB
:102A700002C0839478CF8394839475CF842D867815
:102A800009F471CFF6CFB70180E290E00E947F1584
:102A900083948214C0F3512C73CF522C5818821493
:102AA00008F46ECFF8CF842D867809F47BCF8BE2C3
:102AB00041FE80E247FC8DE2B70190E071CFB701A3
:102AC00080E390E00E947F159A946CCF8FEF9FEF88
:102AD00099CFFC010590615070400110D8F78095A6
:102AE00090958E0F9F1F0895FC01615070400190DA
:102AF0000110D8F7809590958E0F9F1F08950F9322
:102B00001F93CF93DF93182F092FEB018B8181FD4A
:102B100009C01FEF0FEF812F902FDF91CF911F91F1
:102B20000F91089582FF14C02E813F818C819D8179
:102B3000281739073CF4E881F981CF010196998380
:102B4000888310838E819F8101969F838E83E3CF3C
:102B5000E885F985812F0995892BA1F3DACFFA0150
:102B6000AA27283051F1203181F1E8946F936E7FCC
:102B70006E5F7F4F8F4F9F4FAF4FB1E03ED0B4E0BD
:102B80003CD0670F781F891F9A1FA11D680F791FFE
:102B90008A1F911DA11D6A0F711D811D911DA11D0F
:102BA00020D009F468943F912AE0269F112430191F
:102BB000305D3193DEF6CF010895462F4770405DBA
:102BC0004193B3E00FD0C9F7F6CF462F4F70405D69
:102BD0004A3318F0495D31FD4052419302D0A9F7C4
:102BE000EACFB4E0A6959795879577956795BA95BE
:102BF000C9F700976105710508959B01AC010A2E84
:102C000006945795479537952795BA95C9F7620F5A
:0E2C1000731F841F951FA01D0895F894FFCF19
:102C1E005302530200001E03800000000000FD025C
:102C2E0054028A024A03BB029902AD020D0A002029
:102C3E007377697463686564204F4E002069732052
:102C4E00616C7265616479204F4E002073776974F0
:102C5E0063686564204F46460020697320616C727C
:102C6E0065616479204F4646006D61696E20706F14
:102C7E007765720050656C746965722074656D704D
:102C8E003A20686F74736964653A202566207C204B
:102C9E00636F6F6C736964653A2025660070656CAE
:102CAE0074696572310070656C74696572320063A7
:102CBE006F6F6C616E742066616E004E6F726D6127
:102CCE006C20636F6F6C616E742074656D703A204A
:022CDE000000F4
:00000001FF
