:100000000C9439010C943D080C9416080C94610171
:100010000C9461010C9461010C9461010C946101D8
:100020000C9461010C9461010C9461010C946101C8
:100030000C9461010C9461010C9461010C946101B8
:100040000C94CC070C9461010C948A080C946408FD
:100050000C9461010C9461010C9461010C94610198
:100060000C94BC080C94610108000000BE92244965
:10007000123EABAAAA2ABECDCCCC4C3E00000080DA
:10008000BEABAAAAAA3E00000000BF000000803F4D
:100090000000000000084178D3BB4387D1133D190D
:1000A0000E3CC3BD4282AD2B3E68EC8276BED98F3A
:1000B000E1A93E4C80EFFFBE01C4FF7F3F0000007E
:1000C000000000407A10F35A00A0724E1809001088
:1000D000A5D4E80000E87648170000E40B540200BD
:1000E00000CA9A3B000000E1F505000080969800E8
:1000F000000040420F000000A08601000000102711
:1001000000000000E80300000000640000000000A0
:100110000A00000000000100000000002C76D888D2
:10012000DC674F0823DFC1DFAE59E1B1B796E5E3E5
:10013000E453C63AE651997696E8E6C28426EB89FE
:100140008C9B62ED407C6FFCEFBC9C9F40F2BAA59B
:100150006FA5F490055A2AF75C936B6CF9676DC133
:100160001BFCE0E40D47FEF520E6B500D0ED902E37
:100170000300943577050080841E080000204E0A95
:10018000000000C80C333333330F986E12831141D3
:10019000EF8D2114893BE65516CFFEE6DB18D1849E
:1001A0004B381BF77C1D901DA4BBE42420328472C5
:1001B0005E228100C9F124ECA1E53D27206973206E
:1001C000616C7265616479204F4E002073776974A9
:1001D00063686564204F4E00005EBCE2613FDD83D2
:1001E000C29C7E20A3FD1F41009D23BE46DB65F817
:1001F0008C11AF32CA57E9745B4D435520492F4FDC
:100200002070696E206D6F64657320696E69746912
:10021000617465645D0000000000240027002A006E
:1002200000000000250028002B000000000800024C
:1002300001000003040700000000000000000000AF
:10024000000023002600290004040404040404041C
:100250000202020202020303030303030102040871
:100260001020408001020408102001020408102020
:10027000DB0911241FBECFEFD8E0DEBFCDBF23E0E6
:10028000AAEAB1E001C01D92A634B207E1F711E07D
:10029000A0E0B1E0EEECF8E202C005900D92AA3ABF
:1002A000B107D9F711E0C9E3D1E004C02197FE01FD
:1002B0000E94D310C833D107C9F70E945D0A0C947D
:1002C00065140C940000833081F028F4813099F09B
:1002D0008230A9F008958730A9F08830C9F08430C1
:1002E000B1F4809180008F7D03C0809180008F7772
:1002F00080938000089584B58F7784BD089584B578
:100300008F7DFBCF8091B0008F778093B0000895F0
:100310008091B0008F7DF9CFCF93DF93282F30E00D
:10032000F901E65DFD4F8491F901E45AFD4FD49146
:10033000F901E85BFD4FC491CC23A1F081110E942B
:100340006301EC2FF0E0EE0FFF1FE25CFD4FA59183
:10035000B491EC91ED2381E090E009F480E0DF912D
:10036000CF91089580E090E0FACF1F93CF93DF9371
:10037000282F30E0F901E65DFD4F8491F901E45A40
:10038000FD4FD491F901E85BFD4FC491CC23A9F056
:10039000162F81110E946301EC2FF0E0EE0FFF1F7A
:1003A000E05EFD4FA591B4918FB7F894EC911111D7
:1003B00008C0D095DE23DC938FBFDF91CF911F91D2
:1003C0000895DE2BF8CFCF93DF9390E0FC01E45A41
:1003D000FD4F2491885B9D4FFC0184918823C9F0D7
:1003E00090E0880F991FFC01EA5EFD4FA591B49142
:1003F000FC01E05EFD4FC591D49161110DC09FB726
:10040000F8948C91209582238C93888128232883CB
:100410009FBFDF91CF910895623051F49FB7F89458
:100420003C91822F809583238C93E8812E2BEFCFF4
:100430008FB7F894EC912E2B2C938FBFEACF8E5070
:10044000806480937C0080917A00806480937A003D
:1004500080917A0086FDFCCF8091780090917900A0
:1004600008953FB7F8948091700290917102A09125
:100470007202B091730226B5A89B05C02F3F19F0F8
:100480000196A11DB11D3FBFBA2FA92F982F882714
:10049000BC01CD01620F711D811D911D42E0660FEF
:1004A000771F881F991F4A95D1F708958F929F92C1
:1004B000AF92BF92CF92DF92EF92FF924B015C011D
:1004C0000E9431026B017C010E9431026C197D098E
:1004D0008E099F09683E734081059105A8F321E0CC
:1004E000821A9108A108B10888EEC80E83E0D81ED0
:1004F000E11CF11C81149104A104B10429F7FF90BF
:10050000EF90DF90CF90BF90AF909F908F90089525
:10051000089508950895AF92BF92CF92DF92EF921F
:10052000FF920F931F93CF93DF936C017B018B019D
:10053000040F151FEB015E01AE18BF08C017D107ED
:1005400059F06991D601ED91FC910190F081E02D77
:10055000C6010995892B79F7C501DF91CF911F91CC
:100560000F91FF90EF90DF90CF90BF90AF900895E4
:10057000FC01448155816081718184E792E00C9493
:100580008B02FC01538D448D252F30E0842F90E0A9
:10059000821B930B541710F0CF960895019708957E
:1005A000FC01918D828D981761F0A28DAE0FBF2F47
:1005B000B11D5D968C91928D9F5F9F73928F90E09D
:1005C00008958FEF9FEF0895FC01918D828D98170C
:1005D00031F0828DE80FF11D858D90E008958FEF49
:1005E0009FEF0895FC01918D228D892F90E0805C12
:1005F0009F4F821B91098F739927089584E792E09A
:100600000E94F20221E0892B09F420E0822F089554
:1006100080E090E0892B29F00E94FE0281110C9469
:1006200000000895FC01A48DA80FB92FB11DA35A95
:10063000BF4F2C91848D90E001968F739927848F02
:10064000A689B7892C93A089B1898C918370806425
:100650008C93938D848D981306C00288F389E02DC6
:1006600080818F7D80830895EF92FF920F931F9377
:10067000CF93DF93EC0181E0888F9B8D8C8D981355
:100680001AC0E889F989808185FF15C09FB7F89461
:10069000EE89FF896083E889F989808183708064AD
:1006A00080839FBF81E090E0DF91CF911F910F91F8
:1006B000FF90EF900895F62E0B8D10E00F5F1F4F07
:1006C0000F731127E02E8C8D8E110CC00FB607FC16
:1006D000FACFE889F989808185FFF5CFCE010E94A4
:1006E0001203F1CFEB8DEC0FFD2FF11DE35AFF4FFD
:1006F000F0829FB7F8940B8FEA89FB898081806232
:10070000CFCFCF93DF93EC01888D8823B9F0AA89EE
:10071000BB89E889F9898C9185FD03C0808186FDBC
:100720000DC00FB607FCF7CF8C9185FFF2CF80810B
:1007300085FFEDCFCE010E941203E9CFDF91CF916B
:100740000895DC0180E0615090F09D919827E92F99
:10075000EF70F0E0E852FE4F2491E92FE295EF7040
:10076000F0E0E851FE4FE491822F8E27ECCF089500
:10077000DC012C911196ED91FC91F8948181822BF2
:1007800081839281322F30959323928387E090E08A
:100790000197F1F781818323818383E290E00197C0
:1007A000F1F790817894EFECF0E03197F1F7922334
:1007B00081E009F480E00895FC0190810180F281DC
:1007C000E02D292F209560FF14C0F89482818223A8
:1007D00082838181892B8183A3E2B0E01197F1F7B5
:1007E0008281982B9283789487ED90E00197F1F7BE
:1007F0000895F8948281822382838181892B818369
:10080000AFEFB0E01197F1F78281982B9283789443
:100810008FE090E0EBCFEF92FF920F931F93CF9377
:10082000DF93EC01E62E08E010E0FF24F39461E092
:100830008E2D8F2109F460E0CE010E94DC03FF0CB5
:1008400001501109A1F7F894E981FA819181888119
:10085000809589238183E981FA81928188818095BD
:10086000892382837894DF91CF911F910F91FF901C
:10087000EF900895EF92FF920F931F93CF93DF9322
:100880008C017B0165E50E940B04E70188E0E80E1E
:10089000F11C6991C8010E940B04CE15DF05C9F750
:1008A000DF91CF911F910F91FF90EF900895FC0180
:1008B00090810180F281E02DF8948181292F20958B
:1008C0008223818378943DE743E050E0315029F161
:1008D000DA011197F1F780818923C1F3F8948281BD
:1008E000822382838181892B81837894ABE7B7E06F
:1008F0001197F1F7F894818182238183A3E1B1E01C
:100900001197F1F78081982381E009F080E07894D5
:10091000E3E6F6E03197F1F7089580E0089520913D
:10092000CB01260F3327331F21323105ECF4209100
:100930003B02FC0190E080E0243069F082E0089501
:10094000A091CB012191AC0145555E4FA40FB52F6D
:10095000B11D2C930196861798F38091CB01680FF7
:100960006093CB0180E0089581E0089510923B02EE
:1009700081E080933A021092350261E082E10E94A8
:10098000B50161E083E10E94B501E9EBF0E080810F
:100990008E7F808380818D7F808388E48093B80000
:1009A00085E48093BC000895CF93DF9391E090930A
:1009B000AA018823B9F0C091B800D091BA00809103
:1009C000BC008A7B8093BC0060E082E10E94B5019C
:1009D00060E083E10E94B5010E94B604D093BA00A2
:1009E000C093B800DF91CF9108950895E09142023D
:1009F00080914102E81730F4F0E0ED5BFD4F80811B
:100A000090E008958FEF9FEF0895909142028091BA
:100A100041022FEF3FEF981748F4E92FF0E0ED5B2C
:100A2000FD4F208130E09F5F90934202C9010895FD
:100A30008091410290914202891B990B0895CF92B7
:100A4000DF92EF92FF920F931F93CF93DF937C017E
:100A5000CB018A012091F201222389F0EB016B0185
:100A6000C40ED51ECC15DD0569F06991D701ED9155
:100A7000FC910190F081E02DC7010995F3CF642F1F
:100A80000E948F04C801DF91CF911F910F91FF90B9
:100A9000EF90DF90CF900895CF93DF931F92CDB763
:100AA000DEB769832091F2012223F9F0209114022C
:100AB000203258F021E030E0FC013383228390E0C3
:100AC00080E00F90DF91CF9108958091F301E82F9E
:100AD000F0E0EC50FE4F998190838F5F8093F3019B
:100AE0008093140281E090E0ECCF61E0CE010196AA
:100AF0000E948F04F7CF90E080E00895FC0181E030
:100B000090E0A0E0B0E004C0880F991FAA1FBB1FAF
:100B10006A95D2F72389282B238B2489282B248BB1
:100B2000809595899823958B97899823978B96899B
:100B30008923868B089542E050E06EE271E084E7FD
:100B400092E00C948B020F931F93CF93DF938C0151
:100B5000D0E0C0E0F801EC0FFD1F6491662341F086
:100B600084E792E00E943403892B11F02196F2CFA2
:100B70000E949B058C0F9D1FDF91CF911F910F91BC
:100B80000895CF93DF93FC0101900020E9F731979E
:100B9000AF01481B590BBC0184E792E00E948B0215
:100BA000EC010E949B058C0F9D1FDF91CF91089552
:100BB0000F931F93CF93DF93EC0188819981009766
:100BC00059F02A813B812617370730F081E0DF9109
:100BD000CF911F910F9108958B016F5F7F4F0E94FE
:100BE0009813009759F0998388831B830A832C817B
:100BF0003D81232B59F7FC011082E8CF80E0E7CF3D
:100C0000CF93DF93EC0188819981009711F00E94C6
:100C10000F13198218821D821C821B821A82DF9197
:100C2000CF910895EF92FF920F931F93CF93DF938D
:100C3000EC017B01198218821B821A821D821C82A0
:100C4000FB0101900020E9F731978F01061B170B7C
:100C5000B8010E94D805811109C0CE01DF91CF9162
:100C60001F910F91FF90EF900C9400061D830C8351
:100C7000B70188819981DF91CF911F910F91FF90EA
:100C8000EF900C945E14EF92FF920F931F93CF930B
:100C9000DF938C017B01EB0109900020E9F721979C
:100CA000C61BD70BBE010E94D805811109C0C8011F
:100CB000DF91CF911F910F91FF90EF900C94000660
:100CC000F801D583C483B70180819181DF91CF91F1
:100CD0001F910F91FF90EF900C945E14EF92FF9292
:100CE0000F931F93CF93DF93CDB7DEB7A1970FB6C6
:100CF000F894DEBF0FBECDBF7C01CB01BA01F70176
:100D00001182108213821282158214828E010F5F6B
:100D10001F4F22E044E00E944C0D009789F0BC0177
:100D2000C7010E944306A1960FB6F894DEBF0FBE1E
:100D3000CDBFDF91CF911F910F91FF90EF9008955C
:100D4000C7010E940006EFCFEF92FF920F931F930F
:100D5000CF93DF93EC01FB01E080F180E114F1041B
:100D600011F10481158101151105A9F08C819D8176
:100D7000080F191FB801CE010E94D805882399F0E9
:100D8000288139818C819D81B701820F931F0E9438
:100D90005E141D830C83CE01DF91CF911F910F91C3
:100DA000FF90EF900895CE010E940006F4CFFC0161
:100DB00080819181009711F00C940F1308950F9387
:100DC0001F93CF93DF9300D000D000D0CDB7DEB714
:100DD000182F062F60E371E0CE0101960E941206E3
:100DE00061E371E0133051F06CE371E0112331F0F5
:100DF00065E471E0113011F06EE471E0CE0101960E
:100E00000E944306812F01112BC00E948C01892B67
:100E1000D9F060E0812F0E94B501CE0101960E94B9
:100E2000B8028BEC91E00E94A305CE0101960E94CE
:100E3000D70626960FB6F894DEBF0FBECDBFDF9162
:100E4000CF911F910F910895812F0E948C01892BC2
:100E500061F7CE0101960E94B8028CEB91E0E3CFDE
:100E60000E948C01019769F061E0812F0E94B50119
:100E7000CE0101960E94B8028AE591E00E94C10568
:100E8000D4CF812F0E948C01019779F6CE01019673
:100E90000E94B80288E691E0F1CF85ED8093BC0016
:100EA00080913D0290913E02A0913F02B09140029C
:100EB0000796A11DB11D23E0B695A7959795879537
:100EC0002A95D1F72091BC0024FD03C010923B026B
:100ED000089540913D0250913E0260913F02709111
:100EE0004002452B462B472B69F30097A105B1051E
:100EF00041F025E32A95F1F700000197A109B10916
:100F0000E1CF80913C020C94D404CF92DF92EF9217
:100F1000FF922AE038E240EA5BE30E94DE0F6B01B9
:100F20007C01AC019B0160E070E080EA90E40E94EB
:100F3000D91020E030E44CE156E40E9446119B01B8
:100F4000AC01C701B6010E94461120E030E44CE13B
:100F500056E40E9446110E94F61120E030E948E76D
:100F600055E40E9446112FE03FEC4BE55BE30E9405
:100F7000DA109B01AC0160E070E080E89FE30E9422
:100F8000461123E333E948E853E40E94D910FF9067
:100F9000EF90DF90CF9008951F920F920FB60F92AF
:100FA00011242F933F938F939F93AF93BF9380917F
:100FB0006C0290916D02A0916E02B0916F0230911F
:100FC0006B0223E0230F2D3758F50196A11DB11DAB
:100FD00020936B0280936C0290936D02A0936E023B
:100FE000B0936F028091700290917102A091720291
:100FF000B09173020196A11DB11D80937002909370
:101000007102A0937202B0937302BF91AF919F914E
:101010008F913F912F910F900FBE0F901F901895B9
:1010200026E8230F0296A11DB11DD2CF1F920F9269
:101030000FB60F9211242F933F934F935F936F93AB
:101040007F938F939F93AF93BF93EF93FF93E09121
:101050000201F09103010995FF91EF91BF91AF91CA
:101060009F918F917F916F915F914F913F912F91C0
:101070000F900FBE0F901F9018951F920F920FB6F2
:101080000F9211242F933F934F935F936F937F930E
:101090008F939F93AF93BF93EF93FF93E0910001E2
:1010A000F09101010995FF91EF91BF91AF919F914F
:1010B0008F917F916F915F914F913F912F910F9001
:1010C0000FBE0F901F9018951F920F920FB60F92A0
:1010D00011242F933F934F935F936F937F938F933D
:1010E0009F93AF93BF93EF93FF9384E792E00E94A7
:1010F0001203FF91EF91BF91AF919F918F917F91DB
:101100006F915F914F913F912F910F900FBE0F9074
:101110001F9018951F920F920FB60F9211242F93C4
:101120008F939F93EF93FF93E0918402F091850258
:101130008081E0918A02F0918B0282FD1BC0908138
:1011400080918D028F5F8F7320918E02821741F004
:10115000E0918D02F0E0EC58FD4F958F80938D0269
:10116000FF91EF919F918F912F910F900FBE0F9054
:101170001F9018958081F4CF1F920F920FB60F9297
:1011800011242F933F934F935F936F937F938F938C
:101190009F93AF93BF93EF93FF938091B900887FA4
:1011A000803609F44AC0F0F5883209F4A7C018F572
:1011B000803109F49BC0B8F4882309F4F9C0883061
:1011C00009F494C0FF91EF91BF91AF919F918F91DE
:1011D0007F916F915F914F913F912F910F900FBE33
:1011E0000F901F901895883109F488C0803251F70C
:1011F0008093390214C0803409F49DC040F48033D8
:10120000B9F38833F9F68093390285ECB0C08035A4
:1012100009F485C0883509F496C0883499F60E948F
:101220004D07D0CF883909F48CC038F5883729F0BC
:1012300050F4883611F0803729F683E080933B0222
:101240001092ED0157C0883809F47BC0803919F03D
:10125000803809F0B7CF8091ED01803208F071C07D
:10126000E091ED0181E08E0F8093ED018091BB0054
:10127000F0E0E353FE4F80833DC0803B39F0E0F463
:10128000803A09F479C0883A09F09CCF84E08093D1
:101290003B021092CC011092CB01E091F001F09151
:1012A000F10109958091CB0181110FC081E08093FC
:1012B000CB011092AB0109C0803C09F4A6CF883C59
:1012C00009F4A3CF883B09F07DCFE091CC0181E008
:1012D0008E0F8093CC01F0E0E555FE4F8081809326
:1012E000BB009091CC018091CB0129C08091360246
:1012F0008093BB0085EC8093BC0064CF9091380252
:1013000080913702981758F5E091380281E08E0FEE
:1013100080933802F0E0EB5EFD4F8081E9CFE091F1
:10132000380281E08E0F809338028091BB00F0E09C
:10133000EB5EFD4F808390913802809137029817C1
:10134000C8F285E8D8CFE091380281E08E0F809313
:1013500038028091BB00F0E0EB5EFD4F808380910E
:101360003A0281115CCF81E08093350284EA809358
:10137000BC0010923B0226CF85EC8093BC001092FB
:101380003B028091ED01803230F4E091ED01F0E01C
:10139000E353FE4F10826091ED0170E0E091EE01A9
:1013A000F091EF018DEC91E009951092ED010ACFDB
:1013B0001092390234CFE4E7F2E01382128288EE11
:1013C00093E0A0E0B0E084839583A683B7832EE00A
:1013D00031E03183208325EC30E03587248724EC0D
:1013E00030E03787268720EC30E0318B208B21ECF2
:1013F00030E0338B228B22EC30E0358B248B26ECD3
:1014000030E0378B268B118E128E138E148EE1E115
:10141000F3E01382128284839583A683B78380E2EC
:1014200091E09183808360E082E00E94E301EEE539
:10143000F2E0E491A4E3B3E0EC93EAE4F2E0E491B7
:10144000F0E0EE0FFF1FE25CFD4F85919491129644
:101450009C938E9311971B961C921B971D961C9222
:101460001D971C961C921C971A961C921A971996F7
:101470001C92199718961C92189717961C921797FA
:1014800016961C92169715961C92159714961C92F8
:10149000149713961C921397EDE1F3E0168A158AC0
:1014A0001182B287A18717821086108289E0838318
:1014B00081E08483858386830895CF93DF93CDB7BE
:1014C000DEB767970FB6F894DEBF0FBECDBF789436
:1014D00084B5826084BD84B5816084BD85B5826039
:1014E00085BD85B5816085BD80916E0081608093EA
:1014F0006E00109281008091810082608093810053
:101500008091810081608093810080918000816062
:10151000809380008091B10084608093B1008091BD
:10152000B00081608093B00080917A0084608093E5
:101530007A0080917A00826080937A0080917A00AC
:10154000816080937A0080917A00806880937A002D
:101550001092C100E0918402F091850282E08083C4
:10156000E0918002F09181021082E0918202F0917C
:1015700083028FEC808310928C02E0918802F091BC
:10158000890286E08083E0918602F0918702808163
:1015900080618083E0918602F0918702808188607B
:1015A0008083E0918602F091870280818068808349
:1015B000E0918602F091870280818F7D808368EEC2
:1015C00073E080E090E00E94560261E083E00E94B8
:1015D000E30160E08EE00E94E30160E08FE00E94A2
:1015E000E30160E080E10E94E30188EF91E00E9466
:1015F000A305E0912603F091270313861586148630
:101600001286118610861782168215821482138222
:101610001092240310922503772473946624639414
:101620006E018AE0C80ED11C009126031091270399
:10163000D8011D968C91882309F4D5C0F801138632
:101640001586148661E083E00E94DF0680E0E82EC4
:1016500080E0F82E8FE00E941F02BC01990F880BDA
:10166000990B0E94A30F0E9485074B015C01809299
:10167000670290926802A0926902B0926A028EE0BC
:101680000E941F02BC01990F880B990B0E94A30FA7
:101690000E948507609363027093640280936502E1
:1016A00090936602B501A401CE0101960E946E06D8
:1016B00040916302509164026091650270916602EC
:1016C000CE010A960E946E0668E771E0CE0142964E
:1016D0000E941206BE01665F7F4FCE0142960E94B5
:1016E000A4068C01DC011496CD90DC90B7E0CB0E03
:1016F000D11CB6010E94D80581119BC1C8010E946E
:101700000006BE016F5F7F4FC8010E94A4060E94C1
:10171000B802CE0142960E94D706CE010A960E94D8
:10172000D706CE0101960E94D7066091670270919C
:1017300068028091690290916A020E94B8116E302D
:1017400071050CF087C161E080E00E94DF0661E076
:1017500081E00E94DF0660916302709164028091D3
:101760006502909166020E94B811643171050CF017
:1017700077C161E082E00E94DF0680E10E941F02E3
:10178000BC01990F880B990B0E94A30F0E9485073B
:10179000AB01BC01CE0101960E946E0664E971E0C6
:1017A000CE010A960E941206BE016F5F7F4FCE01E6
:1017B0000A960E94A4060E94B8020E949B05CE01D0
:1017C0000A960E94D706CE0101960E94D706E11420
:1017D000F10409F43FCF0E94FE02882309F43ACFB6
:1017E0000E94000037CFC8010E94570481110AC02F
:1017F000D8011B961C921B971D961C921D971C9638
:101800001C9220CF60EFC8010E940B04EE24E394E9
:10181000A12C912CFF24F394C8010E94B803B82E88
:10182000C8010E94B803B1E0BB1272C0813009F058
:1018300091C0E0E4EF1508F001CFD8011B969C920F
:101840001B97911002C01D967C92F801838188231A
:1018500009F4F4CED8011396FE013A96055F1F4FA6
:101860007F018D9181930A171B07D9F767E0C701A4
:101870000E94A10399898913D7CE809124038F5F99
:10188000809324038A85883239F008F07AC0803149
:1018900019F0823209F0C8CE809125038F5F8093C2
:1018A0002503809126039091270320911D03211188
:1018B00021C00E945704B70180912603909127030D
:1018C0000E943A0464EB80912603909127030E94C2
:1018D0000B0480912603909127030E94B803182FD0
:1018E00080912603909127030E945704111102C092
:1018F00060921D0380912603909127032A85203151
:1019000009F48AC00E945704811142C080E087C058
:10191000EA2DF0E0B81214C0D8011B968C911B97E9
:10192000F816B0F4AE0FBF1F13968C918E2191F470
:10193000B12CB8E0BF1518F0D8011C96FC929F2C72
:10194000E00FF11F83819E2D9095892383830AC028
:101950008F11EECFF801EA0DF11D83818E2983836B
:10196000BB24B3946B2DC8010E94DC03F394EE0CEE
:1019700019F4A394EE24E394B7E0BA1508F04CCF21
:1019800058CF8B3309F488CF823409F04DCE84CF01
:10199000B70180912603909127030E943A046EEBD1
:1019A00080912603909127030E940B048E010F5F04
:1019B0001F4F78011801809026039090270398E02C
:1019C000A92EB12C512C44244394C4010E94B80385
:1019D00081115428440CF1E0AF1AB108B1F7D701D6
:1019E0005D927D01CA16DB0631F780912603909146
:1019F00027030E945704813009F088CFF8018191B4
:101A00008F01811133C0EE15FF05C1F77FCF8F35F0
:101A100071F08F3709F07ACF8CE001C08AE09091A5
:101A20002003981708F000CE80932003FDCD8BE0B3
:101A3000F6CFF80120813181848195816CE871E0D5
:101A4000820F931F0E945E14D8011596DC92CE92ED
:101A5000149757CE673171050CF47DCE60E074CEDB
:101A60006E3271050CF489CE60E084CE68E0C1016D
:101A70000E94A1039985891349CF8D819A859B3353
:101A800011F487FDC9CF8F3349F208F0C0CF8F31F1
:101A900009F03CCF89E0C3CFEF920F931F93CF9310
:101AA000DF93E80134E047FD34E1042E000C550BD0
:101AB00057FF03C0519541955109E32E022F242F62
:101AC000AE010E946A0DCE01DF91CF911F910F915F
:101AD000EF900895A9E0B0E0E0E7FDE00C94A210DB
:101AE0006A01F22EB02E102FFBE3AF2EA01608F4E1
:101AF0001BE31F5F012F27E0AE014F5F5F4F0E9486
:101B0000C90EBC018981982F9970913009F43FC0AA
:101B10009BE2E1FC04C09E2D9170E0FC3AC05E2D7A
:101B20005071E82FE87083FF46C084E0911101C036
:101B300083E0EF2DE81B8F1508F0E0E0D6018E2F33
:101B400020E2552351F1992329F0D6019C93C60137
:101B500001966C0196012D5F3F4FE2FE24C08EE49A
:101B6000D6018C9391E411969C93119712968C93C5
:101B7000D9018E2F90E281111BC0E20FF32FF11DCE
:101B800010828EEF9FEF2996ECE00C94BE109DE240
:101B9000C6CF90E2C4CF2D9381508111FCCFCE0EE1
:101BA000D11CE0E0D0CF8EE6D6018C9391E6DBCF5E
:101BB0009D938150E0CF482F447082FF3DC084E068
:101BC000911101C083E08F1510F4EF2DE81BD601B1
:101BD0008E2F20E2552309F1992329F0D6019C93F9
:101BE000C60101966C0196012D5F3F4FE2FE1BC0BE
:101BF00089E4D6018C938EE411968C93119786E438
:101C000012968C93D9018E2F90E2882309F4B5CFD8
:101C10009D938150FACF2D9381508111FCCFCE0E30
:101C2000D11CE0E0D9CF89E6D6018C938EE61196DF
:101C30008C93119786E6E4CF9B0177FF02C030E0DA
:101C400020E0A1E0B0E0911102C0B0E0A0E0F90115
:101C50003196AE0FBF1F8B2C912CBB2009F461C0B5
:101C60005401EFEFAE1ABE0AAA0DBB1DFA161B06F1
:101C700019F014F04F2D4A1B511188C0E3FC59C0D4
:101C80007601A42FB0E2A1114FC0C40ED11C99233C
:101C900009F45BC040E0D6011196F60190836D0116
:101CA000552309F448C0012F060F9A81582F50710F
:101CB00084FF03C0913309F4015010160CF047C0A3
:101CC000093008F008E0EEE2FE2E5B01A01AB10830
:101CD00085019194819491082F3F320729F4D60110
:101CE000FC92F60131966F016217730794F10217A7
:101CF00013077CF5DB01A21BB30BAA24A394B12C20
:101D0000AC0EBD1EAA0DBB1D11968C912150310940
:101D1000D601119628153905F4F0F60180836D017E
:101D2000DBCFB12CA12CA0CFF701B1937F01A15043
:101D3000AACF9111B0CFD601942F50E302C05D938A
:101D400091509111FCCFC40ED11C40E0ACCF01E00A
:101D5000BACF80E3DBCF6217730731F4963388F490
:101D6000953311F4552369F0F6018083FD01842F2A
:101D700090E2811108C0A40FB11D1C9290E080E098
:101D800002CF81E3F1CF91938150F3CF911183CFB3
:101D90008ACF283008F027E03327DA01990F311D68
:101DA00087FD916000966105710539F432602E5F00
:101DB0003D9330E32A95E1F708959F3F30F0803856
:101DC0007105610509F03C5F3C5F3D93913008F07F
:101DD0008068911DDF93CF931F930F93FF92EF9233
:101DE000192F987F9695E92F96959695E90FFF27DD
:101DF000E45EFE4F99273327EE24FF24A701E70175
:101E000005900894079428F4360FE71EF81E491F22
:101E1000511D660F771F881F991F0694A1F7059023
:101E2000079428F4E70EF81E491F561FC11D770FAF
:101E3000881F991F661F0694A1F70590079428F440
:101E4000F80E491F561FC71FD11D880F991F661F07
:101E5000771F0694A1F70590079420F4490F561FA9
:101E6000C71FD81F990F661F771F881F0694A9F7F1
:101E700084911095177041F0D695C7955795479561
:101E8000F794E7941A95C1F7E2ECF0E068941590A6
:101E9000159135916591959105907FE27395E118C3
:101EA000F10A430B560BC90BD009C0F7E10CF11E28
:101EB000431F561FC91FD01D7EF4703311F48A953D
:101EC000E6CFE894015030F0080F0AF4002702171B
:101ED00008F4202F2395022F7A3328F079E37D939D
:101EE0002A95E9F710C07D932A9589F6069497956F
:101EF0006795379517951794E118F10A430B560B20
:101F0000C90BD00998F023957E9173957A3308F028
:101F100070E37C932013B8F77E9170617D9330F06D
:101F2000839571E37D9370E32A95E1F71124EF9097
:101F3000FF900F911F91CF91DF91992787FD909589
:101F40000895E89409C097FB3EF4909580957095AC
:101F500061957F4F8F4F9F4F9923A9F0F92F96E9F5
:101F6000BB279395F695879577956795B795F1116A
:101F7000F8CFFAF4BB0F11F460FF1BC06F5F7F4F07
:101F80008F4F9F4F16C0882311F096E911C0772319
:101F900021F09EE8872F762F05C0662371F096E822
:101FA000862F70E060E02AF09A95660F771F881FF1
:101FB000DAF7880F9695879597F908950E94F10FA3
:101FC0000C9462100E94541038F00E945B1020F0B4
:101FD000952311F00C944B100C94511011240C9477
:101FE00096100E94731070F3959FC1F3950F50E007
:101FF000551F629FF001729FBB27F00DB11D639FBB
:10200000AA27F00DB11DAA1F649F6627B00DA11D60
:10201000661F829F2227B00DA11D621F739FB00D06
:10202000A11D621F839FA00D611D221F749F332776
:10203000A00D611D231F849F600D211D822F762F0F
:102040006A2F11249F5750409AF0F1F088234AF0EC
:10205000EE0FFF1FBB1F661F771F881F9150504058
:10206000A9F79E3F510580F00C944B100C949610EC
:102070005F3FE4F3983ED4F3869577956795B795DF
:10208000F795E7959F5FC1F7FE2B880F911D9695F9
:10209000879597F9089597F99F6780E870E060E069
:1020A00008959FEF80EC089500240A9416161706F1
:1020B00018060906089500240A9412161306140639
:1020C00005060895092E0394000C11F4882352F09C
:1020D000BB0F40F4BF2B11F460FF04C06F5F7F4F54
:1020E0008F4F9F4F089557FD9058440F551F59F03B
:1020F0005F3F71F04795880F97FB991F61F09F3FF5
:1021000079F087950895121613061406551FF2CF1D
:102110004695F1DF08C0161617061806991FF1CF6D
:1021200086957105610508940895E894BB27662794
:102130007727CB0197F908952F923F924F925F92A4
:102140006F927F928F929F92AF92BF92CF92DF92C7
:10215000EF92FF920F931F93CF93DF93CDB7DEB72C
:10216000CA1BDB0B0FB6F894DEBF0FBECDBF0994C0
:102170002A88398848885F846E847D848C849B8417
:10218000AA84B984C884DF80EE80FD800C811B8125
:10219000AA81B981CE0FD11D0FB6F894DEBF0FBE54
:1021A000CDBFED010895EE0FFF1F0590F491E02DD6
:1021B00009945058BB27AA270E94F1100C94621072
:1021C0000E94541038F00E945B1020F039F49F3FB9
:1021D00019F426F40C9451100EF4E095E7FB0C94DE
:1021E0004B10E92F0E94731058F3BA176207730758
:1021F0008407950720F079F4A6F50C9495100EF459
:10220000E0950B2EBA2FA02D0B01B90190010C0106
:10221000CA01A0011124FF27591B99F0593F50F41E
:10222000503E68F11A16F040A22F232F342F442776
:10223000585FF3CF469537952795A795F04053956E
:10224000C9F77EF41F16BA0B620B730B840BBAF03E
:102250009150A1F0FF0FBB1F661F771F881FC2F7A9
:102260000EC0BA0F621F731F841F48F487957795BD
:102270006795B795F7959E3F08F0B0CF9395880F77
:1022800008F09927EE0F9795879508950E945A11A7
:102290000C9462100E945B1058F00E94541040F0A1
:1022A00029F45F3F29F00C944B1051110C949610B7
:1022B0000C9451100E94731068F39923B1F35523C5
:1022C00091F3951B550BBB27AA2762177307840749
:1022D00038F09F5F5F4F220F331F441FAA1FA9F3DF
:1022E00035D00E2E3AF0E0E832D091505040E695CD
:1022F000001CCAF72BD0FE2F29D0660F771F881F2E
:10230000BB1F261737074807AB07B0E809F0BB0B20
:10231000802DBF01FF2793585F4F3AF09E3F510534
:1023200078F00C944B100C9496105F3FE4F3983EB9
:10233000D4F3869577956795B795F7959F5FC9F71D
:10234000880F911D9695879597F90895E1E0660F9E
:10235000771F881FBB1F621773078407BA0720F017
:10236000621B730B840BBA0BEE1F88F7E095089580
:102370000E94BF116894B1110C94961008950E94A8
:102380007B1088F09F5798F0B92F9927B751B0F07C
:10239000E1F0660F771F881F991F1AF0BA95C9F7E9
:1023A00014C0B13091F00E949510B1E008950C94E2
:1023B0009510672F782F8827B85F39F0B93FCCF395
:1023C000869577956795B395D9F73EF49095809566
:1023D000709561957F4F8F4F9F4F089516F00C9425
:1023E0003E120C94511068940C944B100E947B1078
:1023F000A8F39923C1F3AEF3DF93CF931F930F9309
:10240000FF92C92FDD2788232AF02197660F771FB7
:10241000881FDAF720E030E040E85FEB9FE388397F
:1024200020F0803E38F021968F770E94DA10E8E69F
:10243000F0E004C00E94DA10E5E9F0E00E944C12DE
:102440008B01BE01EC01FB2E6F5771097595771F4B
:10245000880B990B0E94A30F28E132E741E35FE369
:102460000E94F10FAF2D9801AE01FF900F911F91C7
:10247000CF91DF910E94F1100C9462109F3F31F0D8
:10248000915020F4879577956795B795880F911DA2
:102490009695879597F90895DF93CF931F930F93A0
:1024A000FF92EF92DF927B018C01689406C0DA2ED6
:1024B000EF010E94F10FFE01E894A591259135915D
:1024C00045915591A6F3EF010E94F110FE0197018D
:1024D000A801DA9469F7DF90EF90FF900F911F91B8
:1024E000CF91DF9108950F931F93CF93DF938230A5
:1024F000910510F482E090E0E0914403F0914503EF
:1025000030E020E0B0E0A0E0309799F421153105EB
:1025100009F44AC0281B390B24303105D8F58A81CB
:102520009B816115710589F1FB0193838283FE0113
:1025300011C0408151810281138148175907E0F091
:102540004817590799F4109761F012960C93129757
:1025500013961C933296CF01DF91CF911F910F916B
:1025600008950093440310934503F4CF21153105DA
:1025700051F04217530738F0A901DB019A01BD0160
:10258000DF01F801C1CFEF01F9CF909345038093AC
:102590004403CDCFFE01E20FF31F819391932250AC
:1025A000310939832883D7CF2091420330914303E7
:1025B000232B41F42091060130910701309343030E
:1025C000209342032091040130910501211531052A
:1025D00041F42DB73EB74091080150910901241BE9
:1025E000350BE0914203F0914303E217F307A0F4A7
:1025F0002E1B3F0B2817390778F0AC014E5F5F4F59
:102600002417350748F04E0F5F1F50934303409344
:102610004203819391939FCFF0E0E0E09CCFCF9372
:10262000DF930097E9F0FC01329713821282A091A8
:102630004403B0914503ED0130E020E01097A1F490
:1026400020813181820F931F2091420330914303F7
:102650002817390709F061C0F0934303E093420360
:10266000DF91CF910895EA01CE17DF07E8F54A819F
:102670005B819E0141155105B1F7E901FB83EA83B6
:1026800049915991C40FD51FEC17FD0761F4808162
:1026900091810296840F951FE90199838883828135
:1026A00093819B838A83F0E0E0E012968D919C9168
:1026B00013970097B9F52D913C911197CD01029692
:1026C000820F931F2091420330914303281739074B
:1026D00039F6309751F51092450310924403B093A8
:1026E0004303A0934203BCCFD383C2834081518173
:1026F000840F951FC817D90761F44E5F5F4F88811B
:102700009981480F591F518340838A819B8193830C
:1027100082832115310509F0B0CFF0934503E09392
:1027200044039ECFFD01DC01C0CF13821282D7CFBC
:10273000B0E0A0E0EEE9F3E10C949E108C0100976C
:1027400051F4CB010E9473128C01C801CDB7DEB7E2
:10275000E0E10C94BA10FC01E60FF71F9C01225037
:102760003109E217F30708F49DC0D901CD91DC913E
:102770001197C617D70798F0C530D10530F3CE01B1
:1027800004978617970708F3C61BD70B2297C193A8
:10279000D1936D937C93CF010E940F13D6CF5B0131
:1027A000AC1ABD0A4C018C0E9D1EA0914403B09141
:1027B0004503512C412CF12CE12C109731F58091DF
:1027C0004203909143038815990509F05CC04616B1
:1027D000570608F058C080910401909105010097B8
:1027E00041F48DB79EB74091080150910901841BB7
:1027F000950BE817F90708F055C0F0934303E093F1
:102800004203F90171836083A0CF8D919C91119750
:1028100012966C90129713967C901397A815B90591
:1028200059F56C0142E0C40ED11CCA14DB0420F13E
:10283000AC014A195B09DA011296159780F06282A1
:10284000738251834083D9016D937C93E114F10429
:1028500071F0D7011396FC93EE93129776CF2296E0
:102860008C0F9D1FF90191838083F301EFCFF093CB
:102870004503E093440369CF4816590608F42C0138
:102880007D01D3019ACFCB010E9473127C01009786
:1028900049F0AE01B8010E945514C8010E940F13FF
:1028A000870153CF10E000E050CFFB01DC0102C0F4
:1028B00001900D9241505040D8F70895FB01DC0182
:0E28C00001900D920020E1F70895F894FFCFEB
:1028CE008A028A02000046038000000000003403E2
:1028DE008B02C1028103F202D002E402000000006A
:1028EE004C051F057B05F50418050505F6040D0AB4
:1028FE00004D41494E20504F5745520050656C7463
:10290E00696572310050656C746965723200436F8F
:10291E006F6C616E742066616E00207377697463EC
:10292E00686564204F46460020697320616C7265AD
:10293E00616479204F46460050656C74696572205B
:10294E0074656D703A2D2048533A2000207C204348
:10295E00533A20004E6F726D616C20636F6F6C6125
:0A296E006E742074656D703A20004D
:00000001FF
